:020000040800F2
:10000000680600208901000891010008930100089A
:100010009501000897010008990100080000000000
:100020000000000000000000000000009B0100082C
:100030009D010008000000009F010008A1010008C8
:10004000A3010008A3010008A3010008A301000800
:10005000A3010008A3010008A3010008A3010008F0
:10006000A3010008A3010008A3010008A3010008E0
:10007000A3010008A3010008A3010008A3010008D0
:10008000A3010008A3010008A3010008A3010008C0
:10009000A3010008A3010008A3010008A3010008B0
:1000A000A3010008A3010008A3010008A3010008A0
:1000B000A3010008A301000800000000A30100083C
:1000C000A30100080000000000000000A3010008D8
:1000D00000000000A3010008A301000800000000C8
:1000E000A3010008A3010008A301000800F002F822
:1000F00000F03AF80AA090E8000C82448344AAF188
:100100000107DA4501D100F02FF8AFF2090EBAE885
:100110000F0013F0010F18BFFB1A43F0010318473B
:100120004803000068030000103A24BF78C878C173
:10013000FAD8520724BF30C830C144BF04680C60ED
:10014000704700000023002400250026103A28BF35
:1001500078C1FBD8520728BF30C148BF0B60704739
:100160001FB51FBD10B510BD00F031F81146FFF7E7
:10017000F7FF00F031F900F04FF803B4FFF7F2FF9A
:1001800003BC00F057F800000948804709480047C1
:10019000FEE7FEE7FEE7FEE7FEE7FEE7FEE7FEE737
:1001A000FEE7FEE704480549054A064B7047000094
:1001B00071030008ED0000086800002068060020B8
:1001C000680200206802002070477047704775463B
:1001D00000F02CF8AE4605006946534620F00700B3
:1001E000854618B020B5FFF7DDFFBDE820404FF091
:1001F00000064FF000074FF000084FF0000BAC4630
:10020000ACE8C009ACE8C009ACE8C009ACE8C0097A
:1002100021F007018D46704710B50446AFF300800A
:100220002046BDE81040FFF7A8BF00000048704717
:100230000800002001491820ABBEFEE7260002009E
:100240007047000080B500F001F880BD84B0002048
:100250000390029041F20001C4F20201086840F4E8
:1002600080300860FFE741F20000C4F2020000683D
:1002700000F400300290039801300390FFE70299E8
:100280000020019039B9FFE70398B0F5A06018BFCE
:1002900001200190FFE70198C0070028E3D1FFE7A4
:1002A00041F20000C4F2020000688003002803D578
:1002B000FFE70120029002E000200290FFE7029891
:1002C000012851D1FFE742F20001C4F2020108689F
:1002D00040F010000860086820F00300086008681B
:1002E00040F00200086041F20401C4F202010091F2
:1002F0000868086008680860086840F48060086062
:10030000086820F47C100860086840F4E810086071
:1003100041F20001C4F20201086840F080700860F8
:10032000FFE741F20000C4F20200006880010028EB
:1003300001D4FFE7F5E741F20401C4F202010868C5
:1003400020F003000860086840F002000860FFE742
:1003500041F20400C4F20200006800F00C0008281A
:1003600001D0FFE7F4E700E0FFE704B070470000CA
:1003700080B541F20002C4F20202106840F00100B0
:10038000106041F20401C4F2020108680023CFF6B4
:10039000FF031840086010684FF6FF73CFF6F6634E
:1003A00018401060106820F480201060086820F465
:1003B000FE00086041F20801C4F202014FF41F0080
:1003C0000860FFF73FFF4EF60851CEF200014FF0F4
:1003D0000060086080BD000083B00020029041F200
:1003E0001801C4F20201086840F00400086040F6F9
:1003F0000401C4F20101086820F470000860086874
:1004000040F400100860FFE740F20000C2F2000074
:100410000168086840F40050086000200190FFE780
:10042000019842F20F71884205DCFFE7FFE701986F
:1004300001300190F4E740F20000C2F200000168D0
:10044000086820F40050086000200090FFE7009842
:1004500042F20F71884205DCFFE7FFE700980130A8
:100460000090F4E7D0E700008804000800000020B6
:10047000080000002801000890040008080000207F
:1004800060060000440100080C0801400000000064
:04000005080000ED02
:00000001FF
