:100000000C942A000C9447000C9447000C94470071
:100010000C9447000C9447000C9447000C94470044
:100020000C9447000C9447000C9447000C94470034
:100030000C9447000C9481030C94C3030C94B003FC
:100040000C9447000C9447000C9447000C94470014
:100050000C94470011241FBECFE5D8E0DEBFCDBF12
:1000600010E0A0E6B0E0EAE1FAE002C005900D92EF
:10007000AA36B107D9F720E0AAE6B0E001C01D9288
:10008000AB37B207E1F70E94E7030C940B050C9421
:100090000000CF93DF93CDB7DEB710926D001092C2
:1000A0006B0010926A0080E180936C0081E0809385
:1000B0006E008AE690E00E946A020000DF91CF9114
:1000C0000895CF93DF93CDB7DEB72E970FB6F89490
:1000D000DEBF0FBECDBF80916F008A3028F58091C2
:1000E0006F00882F90E0805A9F4FFC018081682F1D
:1000F0008AE690E00E94CD0280916F00882F90E008
:10010000805A9F4FFC018081682F80E390E00E941D
:10011000440280916F008F5F80936F0080916F0029
:100120008A3011F410926F0080E090E0A8E4B3E40C
:1001300089839A83AB83BC8320E030E04AE755E4AF
:1001400069817A818B819C810E947604DC01CB01DC
:100150008D839E83AF83B88720E030E040E85FE383
:100160006D817E818F8198850E94F00388232CF415
:1001700081E090E09A8789873FC020E03FEF4FE71A
:1001800057E46D817E818F8198850E9471041816D5
:100190004CF520E030E040E251E469817A818B81C6
:1001A0009C810E947604DC01CB01BC01CD010E9440
:1001B000F503DC01CB019A8789870FC080E991E0C4
:1001C0009C878B878B859C850197F1F79C878B8714
:1001D00089859A8501979A87898789859A85892B48
:1001E00069F714C06D817E818F8198850E94F50327
:1001F000DC01CB019A87898789859A859E878D87BF
:100200008D859E850197F1F79E878D8700002E963C
:100210000FB6F894DEBF0FBECDBFDF91CF9108952A
:10022000CF93DF93CDB7DEB728970FB6F894DEBF34
:100230000FBECDBF9E838D8378876F838D819E8116
:10024000C99771F08D819E81C69751F08D819E81F5
:10025000C39731F08D819E81C09711F080E0CBC0B3
:100260001A821B821C821982C1C08981282F30E02A
:1002700081E090E002C0880F991F2A95E2F78A83F7
:100280008F819885FC0190818A8189238B839A8153
:100290008B81981709F0A7C08F819885FC01818117
:1002A000813079F58D819E81FC0181818C838F81E4
:1002B0009885FC018181882F90E02981222F30E0F0
:1002C00002C0880F991F2A95E2F7982F90958C818C
:1002D00089238C838F819885FC018181882F90E010
:1002E0002981222F30E002C0880F991F2A95E2F75A
:1002F000982F8C81892B8C838D819E812C81FC0190
:1003000021838F819885FC01818188230CF06BC04B
:100310008B81813019F08B818230B9F585E590E0D1
:10032000FC0180818C838F819885FC018181882FDD
:1003300090E0807899272981222F30E0220F331F07
:1003400002C0880F991F2A95E2F7982F90958C810B
:1003500089238C838F819885FC018181882F90E08F
:10036000807899272981222F30E0220F331F02C085
:10037000880F991F2A95E2F7982F8C81892B8C83FF
:1003800085E590E02C81FC0120838B81843059F538
:1003900084E590E0FC0180818C838F819885FC014D
:1003A000818182788295880F807E8095982F8C81BC
:1003B00089238C838F819885FC018181882F90E02F
:1003C00082789927880F991F82959295907F982718
:1003D000807F9827982F8C81892B8C8384E590E0EF
:1003E0002C81FC01208389818F5F898389818830FA
:1003F00008F43BCF81E028960FB6F894DEBF0FBE1D
:10040000CDBFDF91CF910895CF93DF9300D000D07F
:10041000CDB7DEB79A8389836B834C8389819A81B8
:10042000C99771F089819A81C69751F089819A8123
:10043000C39731F089819A81C09711F080E01DC087
:100440008C81813061F489819A81FC0192818B8158
:10045000292F282B89819A81FC0122830DC0898153
:100460009A81FC018281982F8B8180958923282F86
:1004700089819A81FC01228381E00F900F900F9077
:100480000F90DF91CF910895CF93DF9300D01F920B
:10049000CDB7DEB79A8389836B8389819A81C997A7
:1004A00061F089819A81C69741F089819A81C397C9
:1004B00021F089819A81C09731F489819A812B81B9
:1004C000FC01228301C000000F900F900F90DF917C
:1004D000CF910895CF93DF9300D000D01F92CDB776
:1004E000DEB79D838C8319821A821B828C819D8149
:1004F000FC0182818823B1F081E08A8380EB8983CB
:10050000CE010196BC0186E390E00E9410011A82A0
:1005100080E48983CE010196BC0186E390E00E94CD
:10052000100115C01A8280EB8983CE010196BC01AF
:1005300086E390E00E94100181E08A8380E4898351
:10054000CE010196BC0186E390E00E9410018DE28D
:1005500090E02C813D81F90142812C813D81F9019E
:100560002481422B2C813D81F9012181422B2C8158
:100570003D81F9012081422B2C813D81F9012381AC
:10058000242B2064FC01208381E00F900F900F90BA
:100590000F900F90DF91CF910895CF93DF9300D00C
:1005A0001F92CDB7DEB79A8389836B8340E060E109
:1005B00086E390E00E9404028FE290E02B81FC0130
:1005C000208300008EE290E0FC0180818823D4F734
:1005D00041E060E186E390E00E9404028FE290E057
:1005E000FC0180810F900F900F90DF91CF910895C3
:1005F000CF93DF9300D000D000D0CDB7DEB79E837D
:100600008D83198266C000008BE290E0FC0180813E
:100610008823D4F78BE290E0FC0180818A838AE210
:1006200090E0FC0180818B838CE290E0FC01808172
:100630008C838A81882F90E08C719927892B19F0FF
:100640008FEF9FEF55C08B81869581708B83898159
:100650008F3071F08D819E81FC01218532858981E9
:10066000882F90E0820F931FFC018081833209F470
:1006700019828D819E81FC01218532858981882F97
:1006800090E0820F931F2B81222F30E0322F222700
:10069000322F2C81232BFC0120838D819E81FC0134
:1006A000218532858981882F90E0820F931FFC017C
:1006B0008081833259F48D819E81FC0121853285B0
:1006C0008981882F90E0820F931F12C089818F5FEC
:1006D00089838D819E81FC01218532858981882FC6
:1006E00090E0820F931FFC018081833209F08BCF51
:1006F00026960FB6F894DEBF0FBECDBFDF91CF9127
:1007000008951F920F9200905F000F9211242F9373
:100710003F934F935F936F937F938F939F93AF9389
:10072000BF93EF93FF93CF93DF93CDB7DEB780E70F
:1007300090E00E94F8020000DF91CF91FF91EF91CD
:10074000BF91AF919F918F917F916F915F914F91E9
:100750003F912F910F9000925F000F901F9018957E
:100760001F920F9200905F000F921124CF93DF939E
:10077000CDB7DEB70000DF91CF910F9000925F0000
:100780000F901F9018951F920F9200905F000F928C
:1007900011242F938F939F93EF93FF93CF93DF9326
:1007A000CDB7DEB78AE290E0FC0120812F7DFC010D
:1007B00020830000DF91CF91FF91EF919F918F9166
:1007C0002F910F9000925F000F901F901895CF937C
:1007D000DF93CDB7DEB70E9449000E946100FDCFD4
:1007E0000E94240408F481E008950E94500488F0D7
:1007F0009F5798F0B92F9927B751B0F0E1F0660FE5
:10080000771F881F991F1AF0BA95C9F714C0B13025
:1008100091F00E946A04B1E008950C946A04672F75
:10082000782F8827B85F39F0B93FCCF38695779554
:100830006795B395D9F73EF490958095709561953D
:100840007F4F8F4F9F4F0895990F0008550FAA0BA8
:10085000E0E8FEEF16161706E807F907C0F01216D3
:100860001306E407F50798F0621B730B840B950BD6
:1008700039F40A2661F0232B242B252B21F408952B
:100880000A2609F4A140A6958FEF811D811D0895C8
:1008900057FD9058440F551F59F05F3F71F0479531
:1008A000880F97FB991F61F09F3F79F08795089516
:1008B000121613061406551FF2CF4695F1DF08C035
:1008C000161617061806991FF1CF86957105610552
:1008D00008940895E894BB2766277727CB0197F9FA
:1008E00008950E94240408F48FEF08950E9489045B
:1008F0000C94FA040E94EC0438F00E94F30420F0F7
:10090000952311F00C94E3040C94E90411240C9445
:100910006B040E94480470F3959FC1F3950F50E05B
:10092000551F629FF001729FBB27F00DB11D639FA1
:10093000AA27F00DB11DAA1F649F6627B00DA11D47
:10094000661F829F2227B00DA11D621F739FB00DED
:10095000A11D621F839FA00D611D221F749F33275D
:10096000A00D611D231F849F600D211D822F762FF6
:100970006A2F11249F5750409AF0F1F088234AF0D3
:10098000EE0FFF1FBB1F661F771F881F915050403F
:10099000A9F79E3F510580F00C94E3040C946B047E
:1009A0005F3FE4F3983ED4F3869577956795B795C6
:1009B000F795E7959F5FC1F7FE2B880F911D9695E0
:1009C000879597F9089597F99F6780E870E060E050
:1009D00008959FEF80EC089500240A9416161706D8
:1009E00018060906089500240A9412161306140620
:1009F00005060895092E0394000C11F4882352F083
:100A0000BB0F40F4BF2B11F460FF04C06F5F7F4F3A
:0A0A10008F4F9F4F0895F894FFCF19
:0A0A1A003F065B4F666D7D077F6F9E
:00000001FF
