:100000000C942A000C947F000C94AE000C94C10058
:100010000C9447000C9447000C9447000C94470044
:100020000C9447000C9464040C9471030C948403A6
:100030000C94D4000C9400050C9442050C942F05EC
:100040000C9447000C9447000C9447000C94470014
:100050000C94470011241FBECFE5D8E0DEBFCDBF12
:1000600010E0A0E6B0E0E2EEFAE002C005900D92EA
:10007000A036B107D9F720E0A0E6B0E001C01D929C
:10008000A338B207E1F70E9466050C946F050C9443
:100090000000CF93DF93CDB7DEB780E390E090937D
:1000A00066008093650084E08093670081E0809320
:1000B000680085E690E00E942F020E94AC02109238
:1000C00063001092610080E88093600010926200EB
:1000D0001092640080E690E00E94EF0278948BED2D
:1000E00095E00E94DA020000DF91CF910895CF934E
:1000F000DF93CDB7DEB70000DF91CF9108951F9257
:100100000F9200905F000F9211242F933F934F9313
:100110005F936F937F938F939F93AF93BF93EF936F
:10012000FF93CF93DF93CDB7DEB78BED95E00E94C1
:10013000DA020000DF91CF91FF91EF91BF91AF9173
:100140009F918F917F916F915F914F913F912F91EF
:100150000F9000925F000F901F9018951F920F92C2
:1001600000905F000F921124CF93DF93CDB7DEB7DD
:100170000000DF91CF910F9000925F000F901F90D1
:1001800018951F920F9200905F000F921124CF9349
:10019000DF93CDB7DEB70000DF91CF910F900092D3
:1001A0005F000F901F9018951F920F9200905F00B4
:1001B0000F9211242F933F934F935F936F937F93ED
:1001C0008F939F93AF93BF93EF93FF93CF93DF935F
:1001D0001F92CDB7DEB768EC80E690E00E94520334
:1001E00089838981882F90E00E940C0100000F9084
:1001F000DF91CF91FF91EF91BF91AF919F918F913F
:100200007F916F915F914F913F912F910F9000924D
:100210005F000F901F901895CF93DF9300D01F922F
:10022000CDB7DEB79B838A8319828A819B814197F0
:1002300041F48FEC97E00E94DA0289818F5F898315
:1002400017C08A819B81409721F489818F5F8983C0
:100250000FC08A819B81819721F489818F5F898377
:1002600007C08A819B81829719F489818F5F898376
:1002700089810F900F900F90DF91CF910895CF93C8
:10028000DF93CDB7DEB728970FB6F894DEBF0FBE69
:10029000CDBF9E838D8378876F838D819E81C99723
:1002A00071F08D819E81C69751F08D819E81C3979B
:1002B00031F08D819E81C09711F080E0C7C01B8214
:1002C0001C8219821A82BDC08A81282F30E081E009
:1002D00090E002C0880F991F2A95E2F78B838F81E7
:1002E0009885FC0190818B8189238C839B818C81F3
:1002F000981709F0A3C08F819885FC018181813016
:1003000079F58D819E81FC01818189838F8198851A
:10031000FC018181882F90E02A81222F30E002C0E9
:10032000880F991F2A95E2F7982F90958981892344
:1003300089838F819885FC018181882F90E02A81B3
:10034000222F30E002C0880F991F2A95E2F7982FDC
:100350008981892B89838D819E812981FC0121835B
:100360008F819885FC01818188230CF067C08D8185
:100370009E81C09779F585E590E0FC0180818983B5
:100380008C81843069F489818C7F89838F81988501
:10039000FC018181982F93708981892B898315C0F5
:1003A0008C81883091F48981837F89838F819885BE
:1003B000FC018181882F90E0880F991F880F991F79
:1003C000982F9C708981892B898385E590E029810C
:1003D000FC0120838C81843089F58D819E81C697B4
:1003E00069F584E590E0FC01808189838F8198859F
:1003F000FC01818182788295880F880F807C8095AE
:10040000982F8981892389838F819885FC01818137
:10041000882F90E0827899270024969587950794F5
:10042000969587950794982F802D982F8981892BF1
:10043000898384E590E02981FC0120838A818F5F94
:100440008A838A81883008F43FCF81E028960FB6EE
:10045000F894DEBF0FBECDBFDF91CF910895CF934B
:10046000DF9300D000D01F92CDB7DEB79D838C8381
:1004700019821A821B828C819D81FC018281898371
:100480008C819D81FC018381882309F450C083E81D
:100490008A838C819D81FC018281843089F48C81E6
:1004A0009D81FC0180819181C09751F48BE590E0A2
:1004B0002BE530E0F90120812064FC0120832DC070
:1004C0008C819D81FC018281883089F48C819D81A1
:1004D000FC0180819181C09751F48BE590E02BE580
:1004E00030E0F90120812068FC01208316C08C8156
:1004F0009D81FC018281843081F48C819D81FC018D
:1005000080819181C69749F48BE590E02BE530E03E
:10051000F90120812062FC0120838FE590E02FE526
:1005200030E0F90120812068FC01208301C01A829B
:100530008C819D81FC01808191819E012F5F3F4FC5
:10054000B9010E943F0181E00F900F900F900F9032
:100550000F90DF91CF910895CF93DF93CDB7DEB7A2
:1005600082E08093810010927500109274001092C6
:1005700080008FE19EE490937B0080937A0010923C
:100580007F001092770010927600109279001092FE
:10059000780082E080937C0086E080937D0010925A
:1005A00082008EE080937E000E94970381E0DF91BD
:1005B000CF910895CF93DF9300D0CDB7DEB79A8364
:1005C00089838AE490E029813A81FC013183208388
:1005D00089819A810F900F90DF91CF910895CF93E9
:1005E000DF9300D000D01F92CDB7DEB79D838C8300
:1005F00019821A821B828C819D81FC018281882351
:10060000B1F081E08A8380EB8983CE010196BC0141
:1006100086E390E00E943F011A8280E48983CE0144
:100620000196BC0186E390E00E943F0115C01A824A
:1006300080EB8983CE010196BC0186E390E00E94A5
:100640003F0181E08A8380E48983CE010196BC0169
:1006500086E390E00E943F018DE290E02C813D8195
:10066000F90142812C813D81F9012481422B2C81A9
:100670003D81F9012181422B2C813D81F9012081AD
:10068000422B2C813D81F9012381242B2064FC0124
:10069000208381E00F900F900F900F900F90DF91CB
:1006A000CF910895CF93DF9300D01F92CDB7DEB7DF
:1006B0009A8389836B838FE290E02B81FC012083F6
:1006C00000008EE290E0FC0180818823D4F78FE265
:1006D00090E0FC0180810F900F900F90DF91CF91FF
:1006E00008951F920F9200905F000F921124CF93F4
:1006F000DF93CDB7DEB70000DF91CF910F9000926E
:100700005F000F901F9018951F920F9200905F004E
:100710000F921124CF93DF93CDB7DEB70000DF91A6
:10072000CF910F9000925F000F901F901895CF937C
:10073000DF93CDB7DEB78FE490E020917C00222FCD
:1007400030E040917D00442F50E002C0220F331F63
:100750004A95E2F7322F20917E002370232BFC0173
:1007600020838EE490E020917E00222F30E02C70D8
:100770003327220F331F322F20917F00232B3091FC
:100780008000232B30918100232BFC01208380915A
:100790007E0091E0843009F090E020917E0081E0BD
:1007A000293009F080E0892B282F30E090917E00DD
:1007B00081E09B3009F080E0882F90E0282B392BD6
:1007C00090917E0081E09F3009F080E0882F90E0DA
:1007D000822B932B892B51F08AE490E020917600B4
:1007E00030917700FC01318320832EC080917E0000
:1007F00091E08E3009F090E020917E0081E02C3075
:1008000009F080E0892B282F30E090917E0081E074
:100810009A3009F080E0882F90E0282B392B9091B6
:100820007E0081E0983009F080E0882F90E0822BF4
:10083000932B892B49F086E490E020917A00309147
:100840007B00FC01318320838CE490E020917400D4
:1008500030917500FC013183208389E590E029E522
:1008600030E0F901308120918200232BFC012083AC
:1008700080917D00882321F080917D000E944404B6
:1008800081E0DF91CF910895CF93DF9300D000D026
:10089000CDB7DEB78C8381E08A838C81863019F4F2
:1008A00080E2898302C080E18983CE010196BC0188
:1008B00080E390E00E943F0100000F900F900F90A6
:1008C0000F90DF91CF9108951F920F9200905F00DB
:1008D0000F921124CF93DF93CDB7DEB70000DF91E5
:1008E000CF910F9000925F000F901F901895CF93BB
:1008F000DF9300D000D000D0CDB7DEB79E838D83CC
:10090000198266C000008BE290E0FC0180818823A0
:10091000D4F78BE290E0FC0180818A838AE290E048
:10092000FC0180818B838CE290E0FC0180818C83D0
:100930008A81882F90E08C719927892B19F08FEF8D
:100940009FEF55C08B81869581708B8389818F3015
:1009500071F08D819E81FC01218532858981882FEE
:1009600090E0820F931FFC018081833209F4198289
:100970008D819E81FC01218532858981882F90E0BF
:10098000820F931F2B81222F30E0322F2227322F0C
:100990002C81232BFC0120838D819E81FC012185EC
:1009A00032858981882F90E0820F931FFC0180811E
:1009B000833259F48D819E81FC01218532858981A4
:1009C000882F90E0820F931F12C089818F5F8983E7
:1009D0008D819E81FC01218532858981882F90E05F
:1009E000820F931FFC018081833209F08BCF269602
:1009F0000FB6F894DEBF0FBECDBFDF91CF91089543
:100A00001F920F9200905F000F9211242F933F933B
:100A10004F935F936F937F938F939F93AF93BF9306
:100A2000EF93FF93CF93DF93CDB7DEB789E690E0E6
:100A30000E9477040000DF91CF91FF91EF91BF9169
:100A4000AF919F918F917F916F915F914F913F9166
:100A50002F910F9000925F000F901F9018951F929A
:100A60000F9200905F000F921124CF93DF93CDB7C8
:100A7000DEB70000DF91CF910F9000925F000F90E2
:100A80001F9018951F920F9200905F000F921124F3
:100A90002F938F939F93EF93FF93CF93DF93CDB7D4
:100AA000DEB78AE290E0FC0120812F7DFC012083EB
:100AB0000000DF91CF91FF91EF919F918F912F9146
:100AC0000F9000925F000F901F901895CF93DF93C7
:100AD000CDB7DEB70E9449000E947700FDCFF894A1
:020AE000FFCF46
:00000001FF
