:100000000C942A000C948E000C94A1000C94D10046
:100010000C9447000C9447000C9447000C94470044
:100020000C9447000C9422070C94FC060C940F07C8
:100030000C9401010C94BE070C9400080C94ED077D
:100040000C9447000C9447000C9447000C94470014
:100050000C94470011241FBECFE5D8E0DEBFCDBF12
:1000600010E0A0E6B0E0E4E9F2E102C005900D92F4
:10007000A036B107D9F720E0A0E6B0E001C01D929C
:10008000AB37B207E1F70E9424080C9448090C949E
:100090000000CF93DF93CDB7DEB789E390E0909374
:1000A00061008093600083E390E090936700809309
:1000B000660083E390E0909363008093620083E3A3
:1000C00090E0909365008093640081E080936900E4
:1000D00082E08093680084E080936A0080E690E08C
:1000E0000E94480410926E0010926C0080E8809389
:1000F0006B0010926D0010926F008BE690E00E94F2
:100100007A0678940000DF91CF910895CF93DF9322
:10011000CDB7DEB70000DF91CF9108951F920F9207
:1001200000905F000F921124CF93DF93CDB7DEB71D
:100130000000DF91CF910F9000925F000F901F9011
:1001400018951F920F9200905F000F9211242F9329
:100150003F934F935F936F937F938F939F93AF934F
:10016000BF93EF93FF93CF93DF93CDB7DEB761E0FB
:1001700089E390E00E9469020000DF91CF91FF9136
:10018000EF91BF91AF919F918F917F916F915F910F
:100190004F913F912F910F9000925F000F901F9011
:1001A00018951F920F9200905F000F9211242F93C9
:1001B0003F934F935F936F937F938F939F93AF93EF
:1001C000BF93EF93FF93CF93DF93CDB7DEB761E09B
:1001D00089E390E00E9469020000DF91CF91FF91D6
:1001E000EF91BF91AF919F918F917F916F915F91AF
:1001F0004F913F912F910F9000925F000F901F90B1
:1002000018951F920F9200905F000F9211242F9368
:100210003F934F935F936F937F938F939F93AF938E
:10022000BF93EF93FF93CF93DF931F92CDB7DEB7CA
:1002300060E08BE690E00E94DD068983698180E6BC
:1002400090E00E94F90500000F90DF91CF91FF919F
:10025000EF91BF91AF919F918F917F916F915F913E
:100260004F913F912F910F9000925F000F901F9040
:100270001895CF93DF93CDB7DEB728970FB6F894D4
:10028000DEBF0FBECDBF9E838D8378876F838D8148
:100290009E81C99771F08D819E81C69751F08D81A5
:1002A0009E81C39731F08D819E81C09711F080E0CF
:1002B000C7C01B821C8219821A82BDC08A81282F66
:1002C00030E081E090E002C0880F991F2A95E2F7A4
:1002D0008B838F819885FC0190818B8189238C830E
:1002E0009B818C81981709F0A3C08F819885FC01B0
:1002F0008181813079F58D819E81FC0181818983A5
:100300008F819885FC018181882F90E02A81222F9E
:1003100030E002C0880F991F2A95E2F7982F909538
:100320008981892389838F819885FC018181882F28
:1003300090E02A81222F30E002C0880F991F2A9571
:10034000E2F7982F8981892B89838D819E8129816C
:10035000FC0121838F819885FC01818188230CF029
:1003600067C08D819E81C09779F585E590E0FC019D
:10037000808189838C81843069F489818C7F898331
:100380008F819885FC018181982F93708981892BB9
:10039000898315C08C81883091F48981837F89831A
:1003A0008F819885FC018181882F90E0880F991FAB
:1003B000880F991F982F9C708981892B898385E5E7
:1003C00090E02981FC0120838C81843089F58D8126
:1003D0009E81C69769F584E590E0FC018081898360
:1003E0008F819885FC01818182788295880F880FA2
:1003F000807C8095982F8981892389838F81988536
:10040000FC018181882F90E08278992700249695BD
:1004100087950794969587950794982F802D982F08
:100420008981892B898384E590E02981FC012083DF
:100430008A818F5F8A838A81883008F43FCF81E088
:1004400028960FB6F894DEBF0FBECDBFDF91CF91D7
:100450000895CF93DF9300D000D0CDB7DEB79A8355
:1004600089836B834C8389819A81C99771F08981D3
:100470009A81C69751F089819A81C39731F0898119
:100480009A81C09711F080E01DC08C81813061F4A9
:1004900089819A81FC0192818B81292F282B898166
:1004A0009A81FC0122830DC089819A81FC0182819D
:1004B000982F8B8180958923282F89819A81FC012F
:1004C000228381E00F900F900F900F90DF91CF91DA
:1004D0000895CF93DF9300D01F92CDB7DEB79A83F4
:1004E00089836B8389819A81C99761F089819A8117
:1004F000C69741F089819A81C39721F089819A81B9
:10050000C09761F489819A81FC0192818B81292FA6
:10051000282789819A81FC01228301C000000F9065
:100520000F900F90DF91CF910895CF93DF9300D07C
:100530001F92CDB7DEB79A8389836B8389819A81B5
:10054000C99761F089819A81C69741F089819A8122
:10055000C39721F089819A81C09731F489819A816A
:100560002B81FC01228301C000000F900F900F909F
:10057000DF91CF910895CF93DF9300D000D0CDB716
:10058000DEB79A8389836B834C8389819A81C9976B
:1005900069F089819A81C69749F089819A81C397C8
:1005A00029F089819A81C09709F0A0C08B81882F9A
:1005B00090E08830910509F44AC0893091054CF4E7
:1005C0008230910539F18430910591F10197A9F0BC
:1005D0008EC08032910509F459C08132910524F40E
:1005E000409709F444C083C08034910509F45EC08B
:1005F0008038910509F46BC07AC08C81282F217056
:1006000089819A812170FC0131813E7F232BFC017D
:1006100021836DC08C81282F217089819A8121705E
:10062000220FFC0131813D7F232BFC0121835FC020
:100630008C81282F217089819A812170220F220FAD
:10064000FC0131813B7F232BFC01218350C08C8135
:10065000282F217089819A812170220F220F220F69
:10066000FC013181377F232BFC01218340C08C8129
:10067000282F217089819A8121702295207FFC0189
:1006800031813F7E232BFC01218331C08C81282FB7
:10069000217089819A8121702295220F207EFC0190
:1006A00031813F7D232BFC01218321C08C81282FA8
:1006B000217089819A8121702295220F220F207C3E
:1006C000FC0131813F7B232BFC01218310C08C81F5
:1006D000282F217089819A81279522272795FC014F
:1006E00031813F77232BFC01218301C000000F9053
:1006F0000F900F900F90DF91CF910895CF93DF93DC
:1007000000D01F92CDB7DEB79A8389836B8389812E
:100710009A81C99761F089819A81C69741F0898150
:100720009A81C39721F089819A81C09731F4898198
:100730009A812B81FC01218301C000000F900F9052
:100740000F90DF91CF910895CF93DF93CDB7DEB7B0
:1007500060970FB6F894DEBF0FBECDBF988B8F8722
:100760008F859889FC0121858F859889FC01868178
:10077000978140E0622F0E9429020000000080E083
:1007800090E0A0E8BFE389839A83AB83BC8320E039
:1007900030E04AE755E469817A818B819C810E942F
:1007A000B308DC01CB018D839E83AF83B88720E043
:1007B00030E040E85FE36D817E818F8198850E9403
:1007C0002D0888232CF481E090E09A8789873FC028
:1007D00020E03FEF4FE757E46D817E818F81988560
:1007E0000E94AE0818164CF520E030E040E251E4DB
:1007F00069817A818B819C810E94B308DC01CB01E5
:10080000BC01CD010E943208DC01CB019A878987A7
:100810000FC080E991E09C878B878B859C85019731
:10082000F1F79C878B8789859A8501979A878987B5
:1008300089859A85892B69F714C06D817E818F81A6
:1008400098850E943208DC01CB019A8789878985C7
:100850009A859E878D878D859E850197F1F79E8766
:100860008D878F859889FC0121858F859889FC016A
:100870008681978141E0622F0E94290200006096E4
:100880000FB6F894DEBF0FBECDBFDF91CF910895B4
:10089000CF93DF93CDB7DEB76E970FB6F894DEBF78
:1008A0000FBECDBF9E8F8D8F8D8D9E8DFC012085BF
:1008B0008D8D9E8DFC018481958141E0622F0E9487
:1008C000BB028D8D9E8DFC0122858D8D9E8DFC0140
:1008D0008281938141E0622F0E94BB028D8D9E8DAB
:1008E000FC0121858D8D9E8DFC018681978141E0E3
:1008F000622F0E94BB028D8D9E8DFC0122858D8D05
:100900009E8DFC018281938140E0622F0E9429022A
:100910008D8D9E8DFC0120858D8D9E8DFC018481A9
:10092000958140E0622F0E9429028D8D9E8DFC01F1
:1009300021858D8D9E8DFC018681978140E0622FFF
:100940000E9429028D8D9E8DFC01808191816FEF27
:100950000E947E0380E090E0A0EBB1E489839A835B
:10096000AB83BC8320E030E04AE755E469817A81BB
:100970008B819C810E94B308DC01CB018B8B9C8B0B
:10098000AD8BBE8B20E030E040E85FE36B897C8973
:100990008D899E890E942D0888232CF481E090E0A7
:1009A000988F8F8B3FC020E03FEF4FE757E46B8974
:1009B0007C898D899E890E94AE0818164CF520E02E
:1009C00030E040E251E469817A818B819C810E9410
:1009D000B308DC01CB01BC01CD010E943208DC016F
:1009E000CB01988F8F8B0FC080E991E09A8F898F10
:1009F000898D9A8D0197F1F79A8F898F8F89988DBC
:100A00000197988F8F8B8F89988D892B69F714C0E8
:100A10006B897C898D899E890E943208DC01CB011B
:100A2000988F8F8B8F89988D9C8F8B8F8B8D9C8DC2
:100A30000197F1F79C8F8B8F8D8D9E8D61E00E94C9
:100A400040068D8D9E8D6CE30E9440068D8D9E8D9F
:100A500066E00E9440068D8D9E8D60E80E944006F3
:100A60008D8D9E8D6CE00E94400680E090E0A0E2BB
:100A7000B2E48D839E83AF83B88720E030E04AE7FD
:100A800055E46D817E818F8198850E94B308DC01D9
:100A9000CB0189879A87AB87BC8720E030E040E8AC
:100AA0005FE369857A858B859C850E942D08882364
:100AB0002CF481E090E09E878D873FC020E03FEFDF
:100AC0004FE757E469857A858B859C850E94AE083F
:100AD00018164CF520E030E040E251E46D817E8153
:100AE0008F8198850E94B308DC01CB01BC01CD0148
:100AF0000E943208DC01CB019E878D870FC080E900
:100B000091E0988B8F878F8598890197F1F7988B63
:100B10008F878D859E8501979E878D878D859E8584
:100B2000892B69F714C069857A858B859C850E941D
:100B30003208DC01CB019E878D878D859E859A8B3F
:100B4000898B89899A890197F1F79A8B898B0000A3
:100B50006E960FB6F894DEBF0FBECDBFDF91CF917A
:100B60000895CF93DF9300D0CDB7DEB79A83898302
:100B700089819A81FC018081918160E00E947E03DD
:100B800089819A81FC01208589819A81FC01848177
:100B9000958141E0622F0E94290289819A81FC019E
:100BA000228589819A81FC018281938140E0622FB4
:100BB0000E94290289819A810E94A40389819A81D5
:100BC000FC01808191816FEF0E947E0389819A816F
:100BD000FC01208589819A81FC018481958140E016
:100BE000622F0E94290200000F900F90DF91CF9199
:100BF0000895CF93DF9300D01F92CDB7DEB79A83CD
:100C000089836B8389819A810E94B10589819A8148
:100C1000FC01228589819A81FC018281938141E0D6
:100C2000622F0E94290289819A81FC018081918131
:100C30006B810E94950289819A81FC0122858981BC
:100C40009A81FC018281938141E0622F0E942902F6
:100C500089819A81FC01208589819A81FC018481A6
:100C6000958140E0622F0E94290289819A810E9429
:100C7000A40300000F900F900F90DF91CF91089583
:100C8000CF93DF9300D01F92CDB7DEB79A838983CD
:100C90006B8389819A810E94B10589819A81FC01C7
:100CA000808191816B810E94950289819A81FC01EA
:100CB000228589819A81FC018281938140E0622FA3
:100CC0000E94290289819A81FC01208589819A816B
:100CD000FC018481958140E0622F0E942902898174
:100CE0009A810E94A40300000F900F900F90DF9153
:100CF000CF910895CF93DF9300D000D01F92CDB74E
:100D0000DEB79D838C8319821A821B828C819D8120
:100D1000FC0182818823B1F081E08A8380EB8983A2
:100D2000CE010196BC0186E390E00E9439011A824F
:100D300080E48983CE010196BC0186E390E00E94A5
:100D4000390115C01A8280EB8983CE010196BC015E
:100D500086E390E00E94390181E08A8380E4898300
:100D6000CE010196BC0186E390E00E9439018DE23C
:100D700090E02C813D81F90142812C813D81F90176
:100D80002481422B2C813D81F9012181422B2C8130
:100D90003D81F9012081422B2C813D81F901238184
:100DA000242B2064FC01208381E00F900F900F9092
:100DB0000F900F90DF91CF910895CF93DF9300D0E4
:100DC0001F92CDB7DEB79A8389836B838FE290E061
:100DD0002B81FC01208300008EE290E0FC018081E9
:100DE0008823D4F78FE290E0FC0180810F900F9070
:100DF0000F90DF91CF9108951F920F9200905F00A6
:100E00000F921124CF93DF93CDB7DEB70000DF91AF
:100E1000CF910F9000925F000F901F9018951F9236
:100E20000F9200905F000F921124CF93DF93CDB704
:100E3000DEB70000DF91CF910F9000925F000F901E
:100E40001F9018951F920F9200905F000F9211242F
:100E5000CF93DF93CDB7DEB70000DF91CF910F9036
:100E600000925F000F901F901895CF93DF9300D0F2
:100E700000D000D0CDB7DEB79E838D83198266C0C7
:100E800000008BE290E0FC0180818823D4F78BE2A4
:100E900090E0FC0180818A838AE290E0FC018081FD
:100EA0008B838CE290E0FC0180818C838A81882F87
:100EB00090E08C719927892B19F08FEF9FEF55C027
:100EC0008B81869581708B8389818F3071F08D81C4
:100ED0009E81FC01218532858981882F90E0820FD7
:100EE000931FFC018081833209F419828D819E81D8
:100EF000FC01218532858981882F90E0820F931F24
:100F00002B81222F30E0322F2227322F2C81232BCE
:100F1000FC0120838D819E81FC01218532858981A0
:100F2000882F90E0820F931FFC018081833259F457
:100F30008D819E81FC01218532858981882F90E0F9
:100F4000820F931F12C089818F5F89838D819E815B
:100F5000FC01218532858981882F90E0820F931FC3
:100F6000FC018081833209F08BCF26960FB6F8946E
:100F7000DEBF0FBECDBFDF91CF9108951F920F92BC
:100F800000905F000F9211242F933F934F935F9334
:100F90006F937F938F939F93AF93BF93EF93FF9341
:100FA000CF93DF93CDB7DEB780E790E00E9435079F
:100FB0000000DF91CF91FF91EF91BF91AF919F9191
:100FC0008F917F916F915F914F913F912F910F90F2
:100FD00000925F000F901F9018951F920F92009043
:100FE0005F000F921124CF93DF93CDB7DEB70000DF
:100FF000DF91CF910F9000925F000F901F90189596
:101000001F920F9200905F000F9211242F938F93E5
:101010009F93EF93FF93CF93DF93CDB7DEB78AE231
:1010200090E0FC0120812F7DFC0120830000DF91F6
:10103000CF91FF91EF919F918F912F910F900092FF
:101040005F000F901F901895CF93DF93CDB7DEB759
:101050000E9449000E948600FDCF0E94610808F4AA
:1010600081E008950E948D0888F09F5798F0B92F6D
:101070009927B751B0F0E1F0660F771F881F991FCD
:101080001AF0BA95C9F714C0B13091F00E94A708C0
:10109000B1E008950C94A708672F782F8827B85FD0
:1010A00039F0B93FCCF3869577956795B395D9F725
:1010B0003EF490958095709561957F4F8F4F9F4F2F
:1010C0000895990F0008550FAA0BE0E8FEEF1616D9
:1010D0001706E807F907C0F012161306E407F5072C
:1010E00098F0621B730B840B950B39F40A2661F0A0
:1010F000232B242B252B21F408950A2609F4A14043
:10110000A6958FEF811D811D089557FD9058440FBE
:10111000551F59F05F3F71F04795880F97FB991F56
:1011200061F09F3F79F08795089512161306140613
:10113000551FF2CF4695F1DF08C0161617061806A0
:10114000991FF1CF86957105610508940895E8947B
:10115000BB2766277727CB0197F908950E9461087E
:1011600008F48FEF08950E94C6080C9437090E9476
:10117000290938F00E94300920F0952311F00C94D1
:1011800020090C94260911240C94A8080E948508B3
:1011900070F3959FC1F3950F50E0551F629FF001CA
:1011A000729FBB27F00DB11D639FAA27F00DB11DE3
:1011B000AA1F649F6627B00DA11D661F829F22276C
:1011C000B00DA11D621F739FB00DA11D621F839FF3
:1011D000A00D611D221F749F3327A00D611D231FC9
:1011E000849F600D211D822F762F6A2F11249F5717
:1011F00050409AF0F1F088234AF0EE0FFF1FBB1F1A
:10120000661F771F881F91505040A9F79E3F5105D8
:1012100080F00C9420090C94A8085F3FE4F3983EFA
:10122000D4F3869577956795B795F795E7959F5F82
:10123000C1F7FE2B880F911D9695879597F9089514
:1012400097F99F6780E870E060E008959FEF80EC79
:10125000089500240A94161617061806090608951C
:1012600000240A9412161306140605060895092E82
:101270000394000C11F4882352F0BB0F40F4BF2BF1
:1012800011F460FF04C06F5F7F4F8F4F9F4F089531
:04129000F894FFCF00
:00000001FF
