:100000000C942A000C94DC010C940C020C943C021D
:100010000C9447000C9447000C9447000C94470044
:100020000C9447000C94BE040C94CB030C94DE0398
:100030000C9447000C945A050C949C050C9489056B
:100040000C9447000C9447000C9447000C94470014
:100050000C94470011241FBECFE5D8E0DEBFCDBF12
:1000600010E0A0E6B0E0ECECFDE002C005900D92DF
:10007000A036B107D9F720E0A0E6B0E001C01D929C
:10008000AA37B207E1F70E94C0050C94E4060C946D
:100090000000CF93DF9300D01F92CDB7DEB7198257
:1000A0001A821B8280E2898381E08A83CE010196D5
:1000B000BC0180E390E00E946C020E948803000073
:1000C0000F900F900F90DF91CF910895CF93DF9312
:1000D000CDB7DEB7AA970FB6F894DEBF0FBECDBF7F
:1000E00087EE93E00E94B60380E090E0AAE7B4E4D4
:1000F00089839A83AB83BC8320E030E04AE755E4F0
:1001000069817A818B819C810E944F06DC01CB0141
:1001100089A39AA3ABA3BCA320E030E040E85FE34F
:1001200069A17AA18BA19CA10E94C90588232CF406
:1001300081E090E09EA38DA33FC020E03FEF4FE71A
:1001400057E469A17AA18BA19CA10E944A061816C6
:100150004CF520E030E040E251E469817A818B8106
:100160009C810E944F06DC01CB01BC01CD010E94A5
:10017000CE05DC01CB019EA38DA30FC080E991E0E9
:1001800098A78FA38FA198A50197F1F798A78FA3A0
:100190008DA19EA101979EA38DA38DA19EA1892BC8
:1001A00069F714C069A17AA18BA19CA10E94CE0518
:1001B000DC01CB019EA38DA38DA19EA19AA789A747
:1001C00089A59AA50197F1F79AA789A78BED95E0E4
:1001D0000E94B60380E090E0AAE7B4E48D839E839A
:1001E000AF83B88720E030E04AE755E46D817E8137
:1001F0008F8198850E944F06DC01CB018F8B988FF1
:10020000A98FBA8F20E030E040E85FE36F89788DF6
:10021000898D9A8D0E94C90588232CF481E090E095
:100220009C8F8B8F3FC020E03FEF4FE757E46F89F3
:10023000788D898D9A8D0E944A0618164CF520E01B
:1002400030E040E251E46D817E818F8198850E948B
:100250004F06DC01CB01BC01CD010E94CE05DC01C3
:10026000CB019C8F8B8F0FC080E991E09E8F8D8F8B
:100270008D8D9E8D0197F1F79E8F8D8F8B8D9C8D2F
:1002800001979C8F8B8F8B8D9C8D892B69F714C068
:100290006F89788D898D9A8D0E94CE05DC01CB0106
:1002A0009C8F8B8F8B8D9C8D98A38F8F8F8D98A11A
:1002B0000197F1F798A38F8F8FEC97E00E94B60318
:1002C00080E090E0AAE7B4E489879A87AB87BC878F
:1002D00020E030E04AE755E469857A858B859C8586
:1002E0000E944F06DC01CB018D879E87AF87B88BBC
:1002F00020E030E040E85FE36D857E858F8598895A
:100300000E94C90588232CF481E090E09A8B898BA8
:100310003FC020E03FEF4FE757E46D857E858F8536
:1003200098890E944A0618164CF520E030E040E219
:1003300051E469857A858B859C850E944F06DC0196
:10034000CB01BC01CD010E94CE05DC01CB019A8B13
:10035000898B0FC080E991E09C8B8B8B8B899C896A
:100360000197F1F79C8B8B8B89899A8901979A8BDE
:10037000898B89899A89892B69F714C06D857E8557
:100380008F8598890E94CE05DC01CB019A8B898BE1
:1003900089899A899E8B8D8B8D899E890197F1F72A
:1003A0009E8B8D8B0000AA960FB6F894DEBF0FBE11
:1003B000CDBFDF91CF9108951F920F9200905F0003
:1003C0000F9211242F933F934F935F936F937F93DB
:1003D0008F939F93AF93BF93EF93FF93CF93DF934D
:1003E000CDB7DEB761E089E390E00E945C030000D6
:1003F000DF91CF91FF91EF91BF91AF919F918F913D
:100400007F916F915F914F913F912F910F9000924B
:100410005F000F901F9018951F920F9200905F0041
:100420000F9211242F933F934F935F936F937F937A
:100430008F939F93AF93BF93EF93FF93CF93DF93EC
:10044000CDB7DEB761E089E390E00E945C03000075
:10045000DF91CF91FF91EF91BF91AF919F918F91DC
:100460007F916F915F914F913F912F910F900092EB
:100470005F000F901F9018951F920F9200905F00E1
:100480000F9211242F933F934F935F936F937F931A
:100490008F939F93AF93BF93EF93FF93CF93DF938C
:1004A000CDB7DEB761E089E390E00E945C03000015
:1004B000DF91CF91FF91EF91BF91AF919F918F917C
:1004C0007F916F915F914F913F912F910F9000928B
:1004D0005F000F901F901895CF93DF93CDB7DEB7D5
:1004E00028970FB6F894DEBF0FBECDBF9E838D83D5
:1004F00078876F838D819E81C99771F08D819E81F0
:10050000C69751F08D819E81C39731F08D819E8178
:10051000C09711F080E0C7C01B821C8219821A822A
:10052000BDC08A81282F30E081E090E002C0880FB2
:10053000991F2A95E2F78B838F819885FC01908122
:100540008B8189238C839B818C81981709F0A3C0B0
:100550008F819885FC018181813079F58D819E8123
:10056000FC01818189838F819885FC018181882F9D
:1005700090E02A81222F30E002C0880F991F2A952F
:10058000E2F7982F90958981892389838F819885B7
:10059000FC018181882F90E02A81222F30E002C067
:1005A000880F991F2A95E2F7982F8981892B8983D3
:1005B0008D819E812981FC0121838F819885FC0199
:1005C000818188230CF067C08D819E81C09779F569
:1005D00085E590E0FC01808189838C81843069F419
:1005E00089818C7F89838F819885FC018181982FF7
:1005F00093708981892B898315C08C81883091F40F
:100600008981837F89838F819885FC018181882FEF
:1006100090E0880F991F880F991F982F9C708981EF
:10062000892B898385E590E02981FC0120838C81D9
:10063000843089F58D819E81C69769F584E590E0C7
:10064000FC01808189838F819885FC01818182787A
:100650008295880F880F807C8095982F89818923C7
:1006600089838F819885FC018181882F90E0827831
:1006700099270024969587950794969587950794D2
:10068000982F802D982F8981892B898384E590E08C
:100690002981FC0120838A818F5F8A838A81883047
:1006A00008F43FCF81E028960FB6F894DEBF0FBE66
:1006B000CDBFDF91CF910895CF93DF9300D01F92EC
:1006C000CDB7DEB79A8389836B8389819A81C99775
:1006D00061F089819A81C69741F089819A81C39797
:1006E00021F089819A81C09761F489819A81FC0106
:1006F00092818B81292F282789819A81FC0122836D
:1007000001C000000F900F900F90DF91CF910895DE
:10071000CF93DF93CDB7DEB782E08093780010925D
:100720006C0010926B00109277008FE19EE4909322
:100730007200809371001092760010926E001092F9
:100740006D001092700010926F0082E08093730031
:1007500086E080937400109279008EE0809375009B
:100760000E94F10381E0DF91CF910895CF93DF9351
:1007700000D0CDB7DEB79A8389838AE490E02981DF
:100780003A81FC013183208389819A810F900F90F7
:10079000DF91CF9108951F920F9200905F000F920A
:1007A0001124CF93DF93CDB7DEB70000DF91CF9157
:1007B0000F9000925F000F901F9018951F920F925C
:1007C00000905F000F921124CF93DF93CDB7DEB777
:1007D0000000DF91CF910F9000925F000F901F906B
:1007E0001895CF93DF93CDB7DEB78FE490E02091DB
:1007F0007300222F30E040917400442F50E002C07B
:10080000220F331F4A95E2F7322F20917500237093
:10081000232BFC0120838EE490E020917500222F91
:1008200030E02C703327220F331F322F20917600B7
:10083000232B30917700232B30917800232BFC0160
:1008400020838091750091E0843009F090E0209140
:10085000750081E0293009F080E0892B282F30E0F5
:100860009091750081E09B3009F080E0882F90E046
:10087000282B392B9091750081E09F3009F080E0A2
:10088000882F90E0822B932B892B51F08AE490E003
:1008900020916D0030916E00FC01318320832EC0C9
:1008A0008091750091E08E3009F090E02091750004
:1008B00081E02C3009F080E0892B282F30E09091E6
:1008C000750081E09A3009F080E0882F90E0282BB5
:1008D000392B9091750081E0983009F080E0882FE5
:1008E00090E0822B932B892B49F086E490E02091B5
:1008F000710030917200FC01318320838CE490E020
:1009000020916B0030916C00FC013183208389E5DC
:1009100090E029E530E0F901308120917900232B26
:10092000FC01208380917400882321F08091740061
:100930000E949E0481E0DF91CF910895CF93DF93D1
:1009400000D000D0CDB7DEB78C8381E08A838C8164
:10095000863019F480E2898302C080E18983CE0168
:100960000196BC0180E390E00E946C0200000F90B1
:100970000F900F900F90DF91CF9108951F920F92DB
:1009800000905F000F921124CF93DF93CDB7DEB7B5
:100990000000DF91CF910F9000925F000F901F90A9
:1009A0001895CF93DF9300D000D000D0CDB7DEB73D
:1009B0009E838D83198266C000008BE290E0FC016B
:1009C00080818823D4F78BE290E0FC0180818A83C8
:1009D0008AE290E0FC0180818B838CE290E0FC0154
:1009E00080818C838A81882F90E08C719927892B54
:1009F00019F08FEF9FEF55C08B81869581708B83A7
:100A000089818F3071F08D819E81FC012185328535
:100A10008981882F90E0820F931FFC0180818332AF
:100A200009F419828D819E81FC012185328589819D
:100A3000882F90E0820F931F2B81222F30E0322FDE
:100A40002227322F2C81232BFC0120838D819E8134
:100A5000FC01218532858981882F90E0820F931FC8
:100A6000FC018081833259F48D819E81FC012185B6
:100A700032858981882F90E0820F931F12C089816F
:100A80008F5F89838D819E81FC01218532858981DB
:100A9000882F90E0820F931FFC018081833209F040
:100AA0008BCF26960FB6F894DEBF0FBECDBFDF9179
:100AB000CF9108951F920F9200905F000F92112422
:100AC0002F933F934F935F936F937F938F939F9356
:100AD000AF93BF93EF93FF93CF93DF93CDB7DEB781
:100AE00080E690E00E94D1040000DF91CF91FF9159
:100AF000EF91BF91AF919F918F917F916F915F9196
:100B00004F913F912F910F9000925F000F901F9097
:100B100018951F920F9200905F000F921124CF93AF
:100B2000DF93CDB7DEB70000DF91CF910F90009239
:100B30005F000F901F9018951F920F9200905F001A
:100B40000F9211242F938F939F93EF93FF93CF9343
:100B5000DF93CDB7DEB78AE290E0FC0120812F7DE4
:100B6000FC0120830000DF91CF91FF91EF919F91D5
:100B70008F912F910F9000925F000F901F9018950A
:100B8000CF93DF93CDB7DEB70E9449000E94660085
:100B9000FDCF0E94FD0508F481E008950E9429061A
:100BA00088F09F5798F0B92F9927B751B0F0E1F02E
:100BB000660F771F881F991F1AF0BA95C9F714C0DE
:100BC000B13091F00E944306B1E008950C944306C1
:100BD000672F782F8827B85F39F0B93FCCF3869517
:100BE00077956795B395D9F73EF490958095709574
:100BF00061957F4F8F4F9F4F0895990F0008550FB4
:100C0000AA0BE0E8FEEF16161706E807F907C0F092
:100C100012161306E407F50798F0621B730B840B9A
:100C2000950B39F40A2661F0232B242B252B21F474
:100C300008950A2609F4A140A6958FEF811D811D14
:100C4000089557FD9058440F551F59F05F3F71F0BC
:100C50004795880F97FB991F61F09F3F79F0879523
:100C60000895121613061406551FF2CF4695F1DFAC
:100C700008C0161617061806991FF1CF869571053C
:100C8000610508940895E894BB2766277727CB0170
:100C900097F908950E94FD0508F48FEF08950E94CA
:100CA00062060C94D3060E94C50638F00E94CC065A
:100CB00020F0952311F00C94BC060C94C20611246C
:100CC0000C9444060E94210670F3959FC1F3950F82
:100CD00050E0551F629FF001729FBB27F00DB11DC0
:100CE000639FAA27F00DB11DAA1F649F6627B00D50
:100CF000A11D661F829F2227B00DA11D621F739F39
:100D0000B00DA11D621F839FA00D611D221F749F46
:100D10003327A00D611D231F849F600D211D822F8D
:100D2000762F6A2F11249F5750409AF0F1F08823B4
:100D30004AF0EE0FFF1FBB1F661F771F881F9150E1
:100D40005040A9F79E3F510580F00C94BC060C94CE
:100D500044065F3FE4F3983ED4F386957795679514
:100D6000B795F795E7959F5FC1F7FE2B880F911D0B
:100D70009695879597F9089597F99F6780E870E0B1
:100D800060E008959FEF80EC089500240A94161601
:100D9000170618060906089500240A941216130669
:100DA000140605060895092E0394000C11F48823F7
:100DB00052F0BB0F40F4BF2B11F460FF04C06F5F13
:0C0DC0007F4F8F4F9F4F0895F894FFCF96
:00000001FF
