:100000000C942A000C9447000C9447000C94470071
:100010000C9447000C9447000C9447000C94470044
:100020000C9447000C9447000C947E060C94B50683
:100030000C9447000C9451070C9493070C94800780
:100040000C9447000C9447000C9447000C94470014
:100050000C94470011241FBECFE5D8E0DEBFCDBF12
:1000600010E0A0E6B0E0EEEDF7E102C005900D92E1
:10007000AE36B107D9F720E0AEE6B0E001C01D9280
:10008000A13AB207E1F70E94B7070C94ED0B0C946C
:100090000000CF93DF9300D0CDB7DEB79A8389837A
:1000A00087E290E0FC01108287E290E027E230E0F6
:1000B000F9012081422F29813A81F9012081222FE3
:1000C00030E00024369527950794369527950794B8
:1000D000322F202D242BFC01208386E290E026E2A3
:1000E00030E0F9012081287FFC01208386E290E046
:1000F00026E230E0F901408129813A81F90121812C
:10010000242BFC01208386E290E026E230E0F90116
:1001100020812068FC01208381E00F900F90DF9107
:10012000CF910895CF93DF9300D0CDB7DEB79A83F8
:10013000898387E290E027E230E0F9012081207E88
:10014000FC01208387E290E027E230E0F901208182
:100150002760FC01208386E290E026E230E0F9018E
:1001600020812064FC01208386E290E026E230E0DA
:10017000F90120812660FC012083000086E290E0E6
:10018000FC018081882F90E080749927892BB1F73A
:1001900084E290E0FC01808191810F900F90DF91CB
:1001A000CF910895CF93DF93CDB7DEB728970FB6E1
:1001B000F894DEBF0FBECDBF9E838D8378876F839B
:1001C0008F8198858F3F934019F488E893E123C08D
:1001D0008F8198859C0140E050E088E893E1DC0144
:1001E0000E94EA08DC01CB0189839A83AB83BC833C
:1001F00089819A81AB81BC81072E7AE0B695A7955B
:10020000979587957A95D1F7702D89839A83AB83DB
:10021000BC8389819A8128960FB6F894DEBF0FBE01
:10022000CDBFDF91CF910895CF93DF93CDB7DEB7E8
:1002300086E390E090936F0080936E0080E390E0FF
:10024000909375008093740080E390E09093710028
:100250008093700080E390E090937300809372002D
:1002600081E08093770082E08093760084E0809341
:1002700078008EE690E00E94F50387E080937B0093
:1002800086E080937A0081E08093790089E790E0AE
:100290000E9449000000DF91CF910895CF93DF9332
:1002A00000D000D0CDB7DEB789E790E00E94920081
:1002B00090937D0080937C0080917C0090917D00E4
:1002C000BC0189E790E00E94D20090938D0080935A
:1002D0008C0080918C0090918D00969587959C0163
:1002E000ABE7B4E10E94DB08969587958093A00068
:1002F0008091A000482F50E020918C0030918D001B
:1003000080917C0090917D00652F6F934F93432FD8
:100310004F932F93292F2F938F9380E690E0892F6F
:100320008F9380E690E08F931F9281E18F938EE808
:1003300090E0892F8F938EE890E08F930E94F508CC
:100340008DB79EB70C960FB6F894DEBF0FBECDBF2B
:1003500083E280939E0040E060E08EE690E00E94A1
:10036000ED0543E26EE870E08EE690E00E945306F1
:100370001A8219820BC089819A8182579F4FFC0192
:10038000108289819A8101969A83898389819A81D1
:1003900040978CF39091A0008BEA989F812D1124B7
:1003A0008695869580939F0041E060E08EE690E020
:1003B0000E94ED051C821B8219C080919F00282F8E
:1003C00030E08B819C818217930734F46FEF8EE6C7
:1003D00090E00E94A60505C060E08EE690E00E94D5
:1003E000A6058B819C8101969C838B838B819C814C
:1003F00040971CF300000F900F900F900F90DF912B
:10040000CF910895CF93DF9300D000D0CDB7DEB762
:100410009A8389836B834C8389819A81C99771F010
:1004200089819A81C69751F089819A81C39731F069
:1004300089819A81C09711F080E01DC08C81813044
:1004400061F489819A81FC0192818B81292F282B6B
:1004500089819A81FC0122830DC089819A81FC01E6
:100460008281982F8B8180958923282F89819A8179
:10047000FC01228381E00F900F900F900F90DF918D
:10048000CF910895CF93DF9300D01F92CDB7DEB701
:100490009A8389836B8389819A81C99761F0898165
:1004A0009A81C69741F089819A81C39721F0898109
:1004B0009A81C09731F489819A812B81FC01228332
:1004C00001C000000F900F900F90DF91CF91089521
:1004D000CF93DF9300D000D0CDB7DEB79A83898366
:1004E0006B834C8389819A81C99769F089819A814C
:1004F000C69749F089819A81C39729F089819A81A9
:10050000C09709F0A0C08B81882F90E088309105BA
:1005100009F44AC0893091054CF48230910539F1D3
:100520008430910591F10197A9F08EC08032910538
:1005300009F459C08132910524F4409709F444C06C
:1005400083C08034910509F45EC08038910509F4B8
:100550006BC07AC08C81282F217089819A8121708B
:10056000FC0131813E7F232BFC0121836DC08C81F6
:10057000282F217089819A812170220FFC013181FD
:100580003D7F232BFC0121835FC08C81282F2170AC
:1005900089819A812170220F220FFC0131813B7FDA
:1005A000232BFC01218350C08C81282F217089814D
:1005B0009A812170220F220F220FFC013181377F97
:1005C000232BFC01218340C08C81282F217089813D
:1005D0009A8121702295207FFC0131813F7E232B5F
:1005E000FC01218331C08C81282F217089819A815F
:1005F00021702295220F207EFC0131813F7D232B2B
:10060000FC01218321C08C81282F217089819A814E
:1006100021702295220F220F207CFC0131813F7B2B
:10062000232BFC01218310C08C81282F217089810C
:100630009A81279522272795FC0131813F77232B2B
:10064000FC01218301C000000F900F900F900F90CC
:10065000DF91CF910895CF93DF9300D01F92CDB754
:10066000DEB79A8389836B8389819A81C99761F008
:1006700089819A81C69741F089819A81C39721F037
:1006800089819A81C09731F489819A812B81FC01FB
:10069000218301C000000F900F900F90DF91CF9148
:1006A0000895CF93DF93CDB7DEB760970FB6F89478
:1006B000DEBF0FBECDBF988B8F878F859889FC01D9
:1006C00021858F859889FC018681978140E0622F82
:1006D0000E9402020000000080E090E0A0E8BFE37A
:1006E00089839A83AB83BC8320E030E04AE755E4FA
:1006F00069817A818B819C810E944608DC01CB0153
:100700008D839E83AF83B88720E030E040E85FE3CD
:100710006D817E818F8198850E94C00788232CF48B
:1007200081E090E09A8789873FC020E03FEF4FE764
:1007300057E46D817E818F8198850E94410818164B
:100740004CF520E030E040E251E469817A818B8110
:100750009C810E944608DC01CB01BC01CD010E94B6
:10076000C507DC01CB019A8789870FC080E991E03A
:100770009C878B878B859C850197F1F79C878B875E
:1007800089859A8501979A87898789859A85892B92
:1007900069F714C06D817E818F8198850E94C5079D
:1007A000DC01CB019A87898789859A859E878D8709
:1007B0008D859E850197F1F79E878D878F85988916
:1007C000FC0121858F859889FC018681978141E014
:1007D000622F0E940202000060960FB6F894DEBFFE
:1007E0000FBECDBFDF91CF910895CF93DF93CDB7EB
:1007F000DEB76E970FB6F894DEBF0FBECDBF9E8FEB
:100800008D8F8D8D9E8DFC0120858D8D9E8DFC01A3
:100810008481958141E0622F0E9468028D8D9E8DBA
:10082000FC0122858D8D9E8DFC018281938141E0AA
:10083000622F0E9468028D8D9E8DFC0121858D8D19
:100840009E8DFC018681978141E0622F0E946802A3
:100850008D8D9E8DFC0122858D8D9E8DFC0182816A
:10086000938140E0622F0E9402028D8D9E8DFC01DB
:1008700020858D8D9E8DFC018481958140E0622FC5
:100880000E9402028D8D9E8DFC0121858D8D9E8D95
:10089000FC018681978140E0622F0E9402028D8DCB
:1008A0009E8DFC01808191816FEF0E942B0380E07F
:1008B00090E0A0EBB1E489839A83AB83BC8320E012
:1008C00030E04AE755E469817A818B819C810E94FE
:1008D0004608DC01CB018B8B9C8BAD8BBE8B20E063
:1008E00030E040E85FE36B897C898D899E890E94B6
:1008F000C00788232CF481E090E0988F8F8B3FC055
:1009000020E03FEF4FE757E46B897C898D899E8912
:100910000E94410818164CF520E030E040E251E416
:1009200069817A818B819C810E944608DC01CB0120
:10093000BC01CD010E94C507DC01CB01988F8F8BD4
:100940000FC080E991E09A8F898F898D9A8D0197E8
:10095000F1F79A8F898F8F89988D0197988F8F8B58
:100960008F89988D892B69F714C06B897C898D8953
:100970009E890E94C507DC01CB01988F8F8B8F89E0
:10098000988D9C8F8B8F8B8D9C8D0197F1F79C8F11
:100990008B8F8D8D9E8D61E00E9419068D8D9E8DB1
:1009A0006CE30E9419068D8D9E8D66E00E941906EB
:1009B0008D8D9E8D60E80E9419068D8D9E8D6CE058
:1009C0000E94190680E090E0A0E2B2E48D839E834D
:1009D000AF83B88720E030E04AE755E46D817E813F
:1009E0008F8198850E944608DC01CB0189879A8710
:1009F000AB87BC8720E030E040E85FE369857A851B
:100A00008B859C850E94C00788232CF481E090E0B0
:100A10009E878D873FC020E03FEF4FE757E4698511
:100A20007A858B859C850E94410818164CF520E03C
:100A300030E040E251E46D817E818F8198850E9493
:100A40004608DC01CB01BC01CD010E94C507DC01D9
:100A5000CB019E878D870FC080E991E0988B8F87AF
:100A60008F8598890197F1F7988B8F878D859E8563
:100A700001979E878D878D859E85892B69F714C088
:100A800069857A858B859C850E94C507DC01CB0131
:100A90009E878D878D859E859A8B898B89899A897A
:100AA0000197F1F79A8B898B00006E960FB6F89438
:100AB000DEBF0FBECDBFDF91CF910895CF93DF93FF
:100AC00000D0CDB7DEB79A83898389819A81FC01F2
:100AD0008081918160E00E942B0389819A81FC01D1
:100AE000208589819A81FC018481958141E0622F72
:100AF0000E94020289819A81FC01228589819A8162
:100B0000FC018281938140E0622F0E940202898170
:100B10009A810E94510389819A81FC01808191818F
:100B20006FEF0E942B0389819A81FC0120858981C6
:100B30009A81FC018481958140E0622F0E9402022B
:100B400000000F900F90DF91CF910895CF93DF9326
:100B500000D01F92CDB7DEB79A8389836B838981DA
:100B60009A810E945E0589819A81FC012285898192
:100B70009A81FC018281938141E0622F0E940202EE
:100B800089819A81FC01808191816B810E9442025E
:100B900089819A81FC01228589819A81FC01828167
:100BA000938141E0622F0E94020289819A81FC01B7
:100BB000208589819A81FC018481958140E0622FA2
:100BC0000E94020289819A810E94510300000F90C5
:100BD0000F900F90DF91CF910895CF93DF9300D0C6
:100BE00000D0CDB7DEB79A8389836B834C838C8129
:100BF000882F90E0009719F0019751F012C08B8177
:100C000020E8280F89819A81622F0E94190609C065
:100C10008B8120EC280F89819A81622F0E9419060E
:100C2000000000000F900F900F900F90DF91CF9178
:100C30000895CF93DF9300D01F92CDB7DEB79A838C
:100C400089836B8389819A810E945E0589819A815B
:100C5000FC01808191816B810E94420289819A818D
:100C6000FC01228589819A81FC018281938140E087
:100C7000622F0E94020289819A81FC01208589816C
:100C80009A81FC018481958140E0622F0E940202DA
:100C900089819A810E94510300000F900F900F905C
:100CA000DF91CF910895CF93DF9300D000D01F92B2
:100CB000CDB7DEB79A8389837C836B834D830EC067
:100CC0008B819C81FC01208189819A81622F0E9405
:100CD000A6058B819C8101969C838B838B819C8153
:100CE000FC0190818D81981759F700000F900F90AB
:100CF0000F900F900F90DF91CF9108951F920F9258
:100D000000905F000F9211242F933F934F935F93B6
:100D10006F937F938F939F93AF93BF93EF93FF93C3
:100D2000CF93DF93CDB7DEB780917E008F5F809346
:100D30007E0080917E00682F89E390E00E9442024D
:100D40000000DF91CF91FF91EF91BF91AF919F9103
:100D50008F917F916F915F914F913F912F910F9064
:100D600000925F000F901F9018951F920F920090B5
:100D70005F000F921124CF93DF93CDB7DEB7000051
:100D8000DF91CF910F9000925F000F901F90189508
:100D9000CF93DF9300D000D000D0CDB7DEB79E83D5
:100DA0008D83198266C000008BE290E0FC01808197
:100DB0008823D4F78BE290E0FC0180818A838AE269
:100DC00090E0FC0180818B838CE290E0FC018081CB
:100DD0008C838A81882F90E08C719927892B19F058
:100DE0008FEF9FEF55C08B81869581708B838981B2
:100DF0008F3071F08D819E81FC0121853285898142
:100E0000882F90E0820F931FFC018081833209F4C8
:100E100019828D819E81FC01218532858981882FEF
:100E200090E0820F931F2B81222F30E0322F222758
:100E3000322F2C81232BFC0120838D819E81FC018C
:100E4000218532858981882F90E0820F931FFC01D4
:100E50008081833259F48D819E81FC012185328508
:100E60008981882F90E0820F931F12C089818F5F44
:100E700089838D819E81FC01218532858981882F1E
:100E800090E0820F931FFC018081833209F08BCFA9
:100E900026960FB6F894DEBF0FBECDBFDF91CF917F
:100EA00008951F920F9200905F000F9211242F93CC
:100EB0003F934F935F936F937F938F939F93AF93E2
:100EC000BF93EF93FF93CF93DF93CDB7DEB78FE759
:100ED00090E00E94C8060000DF91CF91FF91EF9152
:100EE000BF91AF919F918F917F916F915F914F9142
:100EF0003F912F910F9000925F000F901F901895D7
:100F00001F920F9200905F000F921124CF93DF93F6
:100F1000CDB7DEB70000DF91CF910F9000925F0058
:100F20000F901F9018951F920F9200905F000F92E4
:100F300011242F938F939F93EF93FF93CF93DF937E
:100F4000CDB7DEB78AE290E0FC0120812F7DFC0165
:100F500020830000DF91CF91FF91EF919F918F91BE
:100F60002F910F9000925F000F901F901895CF93D4
:100F7000DF93CDB7DEB70E9414010E944E01FDCF72
:100F80000E94F40708F481E008950E94200888F088
:100F90009F5798F0B92F9927B751B0F0E1F0660F3D
:100FA000771F881F991F1AF0BA95C9F714C0B1307E
:100FB00091F00E943A08B1E008950C943A08672F26
:100FC000782F8827B85F39F0B93FCCF386957795AD
:100FD0006795B395D9F73EF4909580957095619596
:100FE0007F4F8F4F9F4F0895990F0008550FAA0B01
:100FF000E0E8FEEF16161706E807F907C0F012162C
:101000001306E407F50798F0621B730B840B950B2E
:1010100039F40A2661F0232B242B252B21F4089583
:101020000A2609F4A140A6958FEF811D811D089520
:1010300057FD9058440F551F59F05F3F71F0479589
:10104000880F97FB991F61F09F3F79F0879508956E
:10105000121613061406551FF2CF4695F1DF08C08D
:10106000161617061806991FF1CF869571056105AA
:1010700008940895E894BB2766277727CB0197F952
:1010800008950E94F40708F48FEF08950E9459080C
:101090000C94CA080E94BC0838F00E94C30820F0D3
:1010A000952311F00C94B3080C94B90811240C94F6
:1010B0003B080E94180870F3959FC1F3950F50E00C
:1010C000551F629FF001729FBB27F00DB11D639FFA
:1010D000AA27F00DB11DAA1F649F6627B00DA11DA0
:1010E000661F829F2227B00DA11D621F739FB00D46
:1010F000A11D621F839FA00D611D221F749F3327B6
:10110000A00D611D231F849F600D211D822F762F4E
:101110006A2F11249F5750409AF0F1F088234AF02B
:10112000EE0FFF1FBB1F661F771F881F9150504097
:10113000A9F79E3F510580F00C94B3080C943B082E
:101140005F3FE4F3983ED4F3869577956795B7951E
:10115000F795E7959F5FC1F7FE2B880F911D969538
:10116000879597F9089597F99F6780E870E060E0A8
:1011700008959FEF80EC089500240A941616170630
:1011800018060906089500240A9412161306140678
:1011900005060895092E0394000C11F4882352F0DB
:1011A000BB0F40F4BF2B11F460FF04C06F5F7F4F93
:1011B0008F4F9F4F0895A29FB001B39FC001A39F7F
:1011C000700D811D1124911DB29F700D811D112480
:1011D000911D08950E94DB08A59F900DB49F900D6E
:1011E000A49F800D911D11240895AEE0B0E0EBEFB7
:1011F000F8E00C94C40B0D891E898F89988D26E028
:101200002C831A83098397FF02C080E090E801973E
:101210009E838D83AE01455E5F4F698D7A8DCE01D1
:1012200001960E9425094D815E8157FD0AC02F81DC
:101230003885421753070CF49A01F801E20FF31FA7
:1012400010822E96E4E00C94E00BABE0B0E0EBE211
:10125000F9E00C94B60B6C017B018A01FC0117824A
:101260001682838181FFCCC1CE0101963C01F6013B
:101270009381F70193FD859193FF81917F018823ED
:1012800009F4BAC1853239F493FD859193FF8191B8
:101290007F01853229F4B60190E00E941C0BE7CF54
:1012A000912C212C312CFFE1F315D8F08B3279F001
:1012B00038F4803279F08332A1F4232D20611DC0EF
:1012C0008D3261F0803369F4232D216016C0832DA7
:1012D0008260382EE32DE4603E2E2AC0F32DF860A4
:1012E0001DC037FC2DC020ED280F2A3040F08E3273
:1012F000B9F436FC81C1232D2064322E19C036FE8C
:1013000006C08AE0989E200D1124922E11C0EAE0BA
:101310002E9E200D1124222EF32DF0623F2E08C0A8
:101320008C3621F4832D8068382E02C0883641F433
:10133000F70193FD859193FF81917F018111B3CFD7
:10134000982F9F7D9554933028F40C5F1F4F9FE397
:1013500099830DC0833631F0833771F0833509F0FE
:1013600059C021C0F801808189830E5F1F4F8824F6
:101370008394912C530113C02801F2E04F0E511CAD
:10138000F801A080B18036FE03C0692D70E002C074
:101390006FEF7FEFC5010E94110B4C018201F32D0D
:1013A000FF773F2E16C0280122E0420E511CF801A3
:1013B000A080B18036FE03C0692D70E002C06FEFDF
:1013C0007FEFC5010E94060B4C01F32DF0683F2E04
:1013D000820133FC1BC0822D90E088169906B0F480
:1013E000B60180E290E00E941C0B2A94F4CFF50134
:1013F00037FC859137FE81915F01B60190E00E9434
:101400001C0B21102A9421E0821A91088114910466
:1014100071F7E8C0843611F0893641F5F80137FEDE
:1014200007C060817181828193810C5F1F4F08C06A
:1014300060817181072E000C880B990B0E5F1F4F86
:10144000F32DFF763F2E97FF09C0909580957095FC
:1014500061957F4F8F4F9F4FF0683F2E2AE030E01D
:10146000A3010E94580B882E861845C0853731F499
:10147000232D2F7EB22E2AE030E025C0932D997FB8
:10148000B92E8F36C1F018F4883579F0B5C08037A1
:1014900019F0883721F0B0C0E92FE061BE2EB4FE0C
:1014A0000DC0FB2DF460BF2E09C034FE0AC0292FE9
:1014B0002660B22E06C028E030E005C020E130E012
:1014C00002C020E132E0F801B7FE07C060817181FF
:1014D000828193810C5F1F4F06C06081718180E023
:1014E00090E00E5F1F4FA3010E94580B882E8618B4
:1014F000FB2DFF773F2E36FE0DC0232D2E7FA22E13
:10150000891458F434FE0BC032FC09C0832D8E7E42
:10151000A82E05C0B82CA32C03C0B82C01C0B92C30
:10152000A4FE0FC0FE01E80DF11D8081803321F47F
:101530009A2D997EA92E09C0A2FE06C0B394B39439
:1015400004C08A2D867809F0B394A3FC11C0A0FED4
:1015500006C0B21488F4280C922C9B180EC0B2144A
:1015600060F4B60180E290E00E941C0BB394F7CFC8
:10157000B21418F42B1802C0982C212CA4FE10C011
:10158000B60180E390E00E941C0BA2FE17C0A1FCF4
:1015900003C088E790E002C088E590E0B6010CC087
:1015A0008A2D867859F0A1FE02C08BE201C080E24C
:1015B000A7FC8DE2B60190E00E941C0B891438F460
:1015C000B60180E390E00E941C0B9A94F7CF8A94B6
:1015D000F301E80DF11D8081B60190E00E941C0B23
:1015E0008110F5CF222009F442CEB60180E290E0CE
:1015F0000E941C0B2A94F6CFF6018681978102C0C7
:101600008FEF9FEF2B96E2E10C94D20BFC0105903B
:10161000615070400110D8F7809590958E0F9F1FF4
:101620000895FC016150704001900110D8F7809539
:1016300090958E0F9F1F08950F931F93CF93DF9365
:10164000FB01238121FD03C08FEF9FEF2CC022FF00
:1016500016C046815781248135814217530744F4CF
:10166000A081B1819D012F5F3F4F318320838C93F7
:10167000268137812F5F3F4F3783268314C08B012C
:10168000EC01FB010084F185E02D0995892BE1F641
:10169000D80116968D919C911797019617969C9359
:1016A0008E931697CE01DF91CF911F910F910895E0
:1016B000FA01AA27283051F1203181F1E8946F9383
:1016C0006E7F6E5F7F4F8F4F9F4FAF4FB1E03ED029
:1016D000B4E03CD0670F781F891F9A1FA11D680FC7
:1016E000791F8A1F911DA11D6A0F711D811D911DFA
:1016F000A11D20D009F468943F912AE0269F11246F
:101700003019305D3193DEF6CF010895462F4770D2
:10171000405D4193B3E00FD0C9F7F6CF462F4F702D
:10172000405D4A3318F0495D31FD4052419302D08B
:10173000A9F7EACFB4E0A695979587957795679531
:10174000BA95C9F700976105710508959B01AC0131
:101750000A2E06945795479537952795BA95C9F758
:10176000620F731F841F951FA01D08952F923F9233
:101770004F925F926F927F928F929F92AF92BF92A1
:10178000CF92DF92EF92FF920F931F93CF93DF934D
:10179000CDB7DEB7CA1BDB0B0FB6F894DEBF0FBEAA
:1017A000CDBF09942A88398848885F846E847D84F7
:1017B0008C849B84AA84B984C884DF80EE80FD80F9
:1017C0000C811B81AA81B981CE0FD11D0FB6F8946F
:0E17D000DEBF0FBECDBFED010895F894FFCF30
:0E17DE0025642025646D562025642525000015
:00000001FF
