S016000041746D65676133325F74657374312E737265630A
S11300000C942A000C9480000C94C7000C94F70004
S11300100C9447000C9447000C9447000C94470040
S11300200C9447000C94B4030C948E030C94A10319
S11300300C9447000C9450040C9492040C947F0488
S11300400C9447000C9447000C9447000C94470010
S11300500C94470011241FBECFE5D8E0DEBFCDBF0E
S113006010E0A0E6B0E0E2E8F9E002C005900D92ED
S1130070AA36B107D9F720E0AAE6B0E001C01D9284
S1130080AF37B207E1F70E94B6040C94BF040C9496
S11300900000CF93DF9300D01F92CDB7DEB78FE679
S11300A090E00E94830210926D0010926B001092F7
S11300B06A0080E180936C0081E080936E008AE6A0
S11300C090E00E94000319821A821B8284E08983D3
S11300D082E88A83CE010196BC0180E390E00E940D
S11300E0270100000F900F900F90DF91CF9108959A
S11300F0CF93DF93CDB7DEB70000DF91CF910895A2
S11301001F920F9200905F000F9211242F933F9340
S11301104F935F936F937F938F939F93AF93BF930B
S1130120EF93FF93CF93DF93CDB7DEB78091730046
S11301308A30C0F480917300882F90E0805A9F4FDA
S1130140FC018081682F8AE690E00E94630380911D
S113015073008F5F80937300809173008A3011F471
S1130160109273000000DF91CF91FF91EF91BF9146
S1130170AF919F918F917F916F915F914F913F913B
S11301802F910F9000925F000F901F9018951F926F
S11301900F9200905F000F9211242F933F934F937F
S11301A05F936F937F938F939F93AF93BF93EF93DB
S11301B0FF93CF93DF93CDB7DEB761E089E390E09F
S11301C00E9457020000DF91CF91FF91EF91BF9100
S11301D0AF919F918F917F916F915F914F913F91DB
S11301E02F910F9000925F000F901F9018951F920F
S11301F00F9200905F000F9211242F933F934F931F
S11302005F936F937F938F939F93AF93BF93EF937A
S1130210FF93CF93DF93CDB7DEB761E089E390E03E
S11302200E9457020000DF91CF91FF91EF91BF919F
S1130230AF919F918F917F916F915F914F913F917A
S11302402F910F9000925F000F901F901895CF93FD
S1130250DF93CDB7DEB728970FB6F894DEBF0FBE95
S1130260CDBF9E838D8378876F838D819E81C9974F
S113027071F08D819E81C69751F08D819E81C397C7
S113028031F08D819E81C09711F080E0C7C01B8240
S11302901C8219821A82BDC08A81282F30E081E035
S11302A090E002C0880F991F2A95E2F78B838F8113
S11302B09885FC0190818B8189238C839B818C811F
S11302C0981709F0A3C08F819885FC018181813042
S11302D079F58D819E81FC01818189838F81988547
S11302E0FC018181882F90E02A81222F30E002C016
S11302F0880F991F2A95E2F7982F90958981892371
S113030089838F819885FC018181882F90E02A81DF
S1130310222F30E002C0880F991F2A95E2F7982F08
S11303208981892B89838D819E812981FC01218387
S11303308F819885FC01818188230CF067C08D81B1
S11303409E81C09779F585E590E0FC0180818983E1
S11303508C81843069F489818C7F89838F8198852D
S1130360FC018181982F93708981892B898315C021
S11303708C81883091F48981837F89838F819885EA
S1130380FC018181882F90E0880F991F880F991FA5
S1130390982F9C708981892B898385E590E0298138
S11303A0FC0120838C81843089F58D819E81C697E0
S11303B069F584E590E0FC01808189838F819885CB
S11303C0FC01818182788295880F880F807C8095DA
S11303D0982F8981892389838F819885FC01818164
S11303E0882F90E082789927002496958795079422
S11303F0969587950794982F802D982F8981892B1E
S1130400898384E590E02981FC0120838A818F5FC0
S11304108A838A81883008F43FCF81E028960FB61A
S1130420F894DEBF0FBECDBFDF91CF910895CF9377
S1130430DF9300D000D0CDB7DEB79A8389836B8376
S11304404C8389819A81C99771F089819A81C69771
S113045051F089819A81C39731F089819A81C0973B
S113046011F080E01DC08C81813061F489819A8112
S1130470FC0192818B81292F282B89819A81FC018F
S113048022830DC089819A81FC018281982F8B81FE
S113049080958923282F89819A81FC01228381E018
S11304A00F900F900F900F90DF91CF910895CF93FD
S11304B0DF9300D01F92CDB7DEB79A8389836B8315
S11304C089819A81C99761F089819A81C69741F09F
S11304D089819A81C39721F089819A81C09761F4B7
S11304E089819A81FC0192818B81292F2827898116
S11304F09A81FC01228301C000000F900F900F909D
S1130500DF91CF910895CF93DF9300D000D01F9255
S1130510CDB7DEB79D838C8319821A821B828C81AE
S11305209D81FC01828189838C819D81FC01838171
S1130530882309F450C081E88A838C819D81FC0161
S11305408281843089F48C819D81FC018081918138
S1130550C09751F48BE590E02BE530E0F901208160
S11305602064FC0120832DC08C819D81FC0182814B
S1130570883089F48C819D81FC0180819181C097B0
S113058051F48BE590E02BE530E0F90120812068FF
S1130590FC01208316C08C819D81FC018281843002
S11305A081F48C819D81FC0180819181C69749F4FD
S11305B08BE590E02BE530E0F90120812062FC011D
S11305C020838FE590E02FE530E0F9012081206859
S11305D0FC01208301C01A828C819D81FC018081F1
S11305E091819E012F5F3F4FB9010E94270181E055
S11305F00F900F900F900F900F90DF91CF9108956F
S1130600CF93DF9300D000D01F92CDB7DEB79D8388
S11306108C8319821A821B828C819D81FC018281C8
S11306208823B1F081E08A8380EB8983CE0101962F
S1130630BC0186E390E00E9427011A8280E489834A
S1130640CE010196BC0186E390E00E94270115C00B
S11306501A8280EB8983CE010196BC0186E390E087
S11306600E94270181E08A8380E48983CE01019678
S1130670BC0186E390E00E9427018DE290E02C818A
S11306803D81F90142812C813D81F9012481422B74
S11306902C813D81F9012181422B2C813D81F9017D
S11306A02081422B2C813D81F9012381242B20645C
S11306B0FC01208381E00F900F900F900F900F901A
S11306C0DF91CF910895CF93DF9300D01F92CDB7E0
S11306D0DEB79A8389836B8340E060E186E390E030
S11306E00E9417028FE290E02B81FC01208300001E
S11306F08EE290E0FC0180818823D4F741E060E140
S113070086E390E00E9417028FE290E0FC01808172
S11307100F900F900F90DF91CF9108951F920F9239
S113072000905F000F921124CF93DF93CDB7DEB713
S11307300000DF91CF910F9000925F000F901F9007
S113074018951F920F9200905F000F921124CF937F
S1130750DF93CDB7DEB70000DF91CF910F90009209
S11307605F000F901F9018951F920F9200905F00EA
S11307700F921124CF93DF93CDB7DEB70000DF9142
S1130780CF910F9000925F000F901F901895CF9318
S1130790DF9300D000D000D0CDB7DEB79E838D8329
S11307A0198266C000008BE290E0FC0180818823FE
S11307B0D4F78BE290E0FC0180818A838AE290E0A6
S11307C0FC0180818B838CE290E0FC0180818C832E
S11307D08A81882F90E08C719927892B19F08FEFEB
S11307E09FEF55C08B81869581708B8389818F3073
S11307F071F08D819E81FC01218532858981882F4C
S113080090E0820F931FFC018081833209F41982E6
S11308108D819E81FC01218532858981882F90E01C
S1130820820F931F2B81222F30E0322F2227322F69
S11308302C81232BFC0120838D819E81FC01218549
S113084032858981882F90E0820F931FFC0180817B
S1130850833259F48D819E81FC0121853285898101
S1130860882F90E0820F931F12C089818F5F898344
S11308708D819E81FC01218532858981882F90E0BC
S1130880820F931FFC018081833209F08BCF26965F
S11308900FB6F894DEBF0FBECDBFDF91CF910895A0
S11308A01F920F9200905F000F9211242F933F9399
S11308B04F935F936F937F938F939F93AF93BF9364
S11308C0EF93FF93CF93DF93CDB7DEB784E790E048
S11308D00E94C7030000DF91CF91FF91EF91BF9178
S11308E0AF919F918F917F916F915F914F913F91C4
S11308F02F910F9000925F000F901F9018951F92F8
S11309000F9200905F000F921124CF93DF93CDB725
S1130910DEB70000DF91CF910F9000925F000F903F
S11309201F9018951F920F9200905F000F92112450
S11309302F938F939F93EF93FF93CF93DF93CDB731
S1130940DEB78AE290E0FC0120812F7DFC01208348
S11309500000DF91CF91FF91EF919F918F912F91A3
S11309600F9000925F000F901F901895CF93DF9324
S1130970CDB7DEB70E9449000E947800FDCFF894FD
S1050980FFCFA3
S10D09823F065B4F666D7D077F6F33
S9030000FC
