:100000000C942A000C947C000C94AC000C94DC0042
:100010000C9447000C9447000C9447000C94470044
:100020000C9447000C9447000C940A030C94410371
:100030000C9447000C94DD030C941F040C940C04E6
:100040000C9447000C9447000C9447000C94470014
:100050000C94470011241FBECFE5D8E0DEBFCDBF12
:1000600010E0A0E6B0E0ECE9F8E002C005900D92E7
:10007000A036B107D9F720E0A0E6B0E001C01D929C
:10008000A037B207E1F70E9443040C944C040C948F
:100090000000CF93DF9300D01F92CDB7DEB7198257
:1000A0001A821B8281E0898381E08A83CE010196D6
:1000B000BC0189E390E00E940D0180E390E0909301
:1000C00061008093600088E08093620081E080930B
:1000D000630080E690E00E948D0200000F900F9078
:1000E0000F90DF91CF910895CF93DF93CDB7DEB717
:1000F0000000DF91CF9108951F920F9200905F0052
:100100000F9211242F933F934F935F936F937F939D
:100110008F939F93AF93BF93EF93FF93CF93DF930F
:10012000CDB7DEB761E089E390E00E943B020000BA
:10013000DF91CF91FF91EF91BF91AF919F918F91FF
:100140007F916F915F914F913F912F910F9000920E
:100150005F000F901F9018951F920F9200905F0004
:100160000F9211242F933F934F935F936F937F933D
:100170008F939F93AF93BF93EF93FF93CF93DF93AF
:10018000CDB7DEB761E089E390E00E943B0200005A
:10019000DF91CF91FF91EF91BF91AF919F918F919F
:1001A0007F916F915F914F913F912F910F900092AE
:1001B0005F000F901F9018951F920F9200905F00A4
:1001C0000F9211242F933F934F935F936F937F93DD
:1001D0008F939F93AF93BF93EF93FF93CF93DF934F
:1001E000CDB7DEB741E061E089E390E00E94FB011A
:1001F0000000DF91CF91FF91EF91BF91AF919F915F
:100200008F917F916F915F914F913F912F910F90BF
:1002100000925F000F901F901895CF93DF93CDB79A
:10022000DEB728970FB6F894DEBF0FBECDBF9E8312
:100230008D8378876F838D819E81C99771F08D81C1
:100240009E81C69751F08D819E81C39731F08D813B
:100250009E81C09711F080E0C5C01B821C8219826C
:100260001A82BBC08A81282F30E081E090E002C072
:10027000880F991F2A95E2F78B838F819885FC015F
:1002800090818B8189238C839B818C81981709F0C5
:10029000A1C08F819885FC018181813079F58D81A4
:1002A0009E81FC01818189838F819885FC018181F8
:1002B000882F90E02A81222F30E002C0880F991FFA
:1002C0002A95E2F7982F90958981892389838F81D8
:1002D0009885FC018181882F90E02A81222F30E0CF
:1002E00002C0880F991F2A95E2F7982F8981892BE0
:1002F00089838D819E812981FC0121838F8198854D
:10030000FC01818188230CF065C08D819E81C0979E
:1003100079F585E590E0FC01808189838C818430CA
:1003200069F489818C7F89838F819885FC01818123
:10033000982F93708981892B898315C08C8188308F
:1003400091F48981837F89838F819885FC018181E4
:10035000882F90E0880F991F880F991F982F9C7005
:100360008981892B898385E590E02981FC0120839F
:100370008C81843079F58D819E81C69759F584E50D
:1003800090E0FC01808189838F819885FC018181C7
:1003900082788295880F807E8095982F8981892325
:1003A00089838F819885FC018181882F90E08278F4
:1003B0009927880F991F82959295907F9827807F23
:1003C0009827982F8981892B898384E590E029815A
:1003D000FC0120838A818F5F8A838A81883008F4B8
:1003E00041CF81E028960FB6F894DEBF0FBECDBF97
:1003F000DF91CF910895CF93DF9300D000D0CDB798
:10040000DEB79A8389836B834C8389819A81C997EC
:1004100071F089819A81C69751F089819A81C39739
:1004200031F089819A81C09711F080E01DC08C81E4
:10043000813061F489819A81FC0192818B81292F1D
:10044000282B89819A81FC0122830DC089819A81A0
:10045000FC018281982F8B8180958923282F8981A7
:100460009A81FC01228381E00F900F900F900F90F2
:10047000DF91CF910895CF93DF9300D01F92CDB736
:10048000DEB79A8389836B8389819A81C99761F0EA
:1004900089819A81C69741F089819A81C39721F019
:1004A00089819A81C09761F489819A81FC01928146
:1004B0008B81292F282789819A81FC01228301C001
:1004C00000000F900F900F90DF91CF910895CF9380
:1004D000DF9300D01F92CDB7DEB79A8389836B83F9
:1004E00089819A81C99761F089819A81C69741F083
:1004F00089819A81C39721F089819A81C09731F4CB
:1005000089819A812B81FC01228301C000000F9018
:100510000F900F90DF91CF910895CF93DF9300D08C
:1005200000D01F92CDB7DEB79D838C8319821A82CB
:100530001B828C819D81FC01828189838C819D81BC
:10054000FC018381882309F450C083E88A838C816D
:100550009D81FC018281843089F48C819D81FC0124
:1005600080819181C09751F48BE590E02BE530E0DC
:10057000F90120812064FC0120832DC08C819D81A4
:10058000FC018281883089F48C819D81FC0180810D
:100590009181C09751F48BE590E02BE530E0F901B3
:1005A00020812068FC01208316C08C819D81FC0184
:1005B0008281843081F48C819D81FC0180819181D4
:1005C000C69749F48BE590E02BE530E0F9012081F6
:1005D0002062FC0120838FE590E02FE530E0F901F7
:1005E00020812068FC01208301C01A828C819D81BA
:1005F000FC01808191819E012F5F3F4FB9010E94D4
:100600000D0181E00F900F900F900F900F90DF91F0
:10061000CF9108951F920F9200905F000F921124C6
:100620002F933F934F935F936F937F938F939F93FA
:10063000AF93BF93EF93FF93CF93DF93CDB7DEB725
:10064000809164008F5F8093640080916400682FC4
:1006500089E390E00E9467020000DF91CF91FF9153
:10066000EF91BF91AF919F918F917F916F915F912A
:100670004F913F912F910F9000925F000F901F902C
:1006800018951F920F9200905F000F921124CF9344
:10069000DF93CDB7DEB70000DF91CF910F900092CE
:1006A0005F000F901F901895CF93DF9300D000D07C
:1006B00000D0CDB7DEB79E838D83198266C000005F
:1006C0008BE290E0FC0180818823D4F78BE290E0FC
:1006D000FC0180818A838AE290E0FC0180818B8327
:1006E0008CE290E0FC0180818C838A81882F90E0ED
:1006F0008C719927892B19F08FEF9FEF55C08B8153
:10070000869581708B8389818F3071F08D819E8178
:10071000FC01218532858981882F90E0820F931F0B
:10072000FC018081833209F419828D819E81FC0154
:10073000218532858981882F90E0820F931F2B813C
:10074000222F30E0322F2227322F2C81232BFC0145
:1007500020838D819E81FC01218532858981882FAE
:1007600090E0820F931FFC018081833259F48D81C8
:100770009E81FC01218532858981882F90E0820F3E
:10078000931F12C089818F5F89838D819E81FC01B7
:10079000218532858981882F90E0820F931FFC018B
:1007A0008081833209F08BCF26960FB6F894DEBF96
:1007B0000FBECDBFDF91CF9108951F920F92009091
:1007C0005F000F9211242F933F934F935F936F938A
:1007D0007F938F939F93AF93BF93EF93FF93CF93A9
:1007E000DF93CDB7DEB785E690E00E9454030000AA
:1007F000DF91CF91FF91EF91BF91AF919F918F9139
:100800007F916F915F914F913F912F910F90009247
:100810005F000F901F9018951F920F9200905F003D
:100820000F921124CF93DF93CDB7DEB70000DF9195
:10083000CF910F9000925F000F901F9018951F921C
:100840000F9200905F000F9211242F938F939F932C
:10085000EF93FF93CF93DF93CDB7DEB78AE290E0BB
:10086000FC0120812F7DFC0120830000DF91CF91CE
:10087000FF91EF919F918F912F910F9000925F00C8
:100880000F901F901895CF93DF93CDB7DEB70E94DE
:0C08900049000E947400FDCFF894FFCFD7
:00000001FF
