:100000000C942A000C9447000C9447000C94470071
:100010000C9447000C9447000C9447000C94470044
:100020000C9447000C9447000C9447000C94470034
:100030000C9447000C9485020C94C7020C94B402F3
:100040000C9447000C9447000C9447000C94470014
:100050000C94470011241FBECFE5D8E0DEBFCDBF12
:1000600010E0A0E6B0E0ECEEF5E002C005900D92E5
:10007000AC36B107D9F720E0ACE6B0E001C01D9284
:10008000AF37B207E1F70E94EB020C94F4020C9434
:100090000000CF93DF9300D01F92CDB7DEB7109250
:1000A0006F0010926D0010926C0010926E0081E053
:1000B000809370008CE690E00E94BA0119821A8247
:1000C0001B8281E08A838FE78983CE010196BC0180
:1000D00080E390E00E94A00000000F900F900F902E
:1000E000DF91CF910895CF93DF93CDB7DEB78091A5
:1000F0006A008A3008F580916A00882F90E0805A63
:100100009F4FFC018081682F8CE690E00E94E20105
:1001100080937E0080917E00682F80E390E00E94B3
:10012000940180916A008F5F80936A0080916A00D9
:100130008A3011F410926A000000DF91CF91089587
:10014000CF93DF93CDB7DEB728970FB6F894DEBF15
:100150000FBECDBF9E838D8378876F838D819E81F7
:10016000C99771F08D819E81C69751F08D819E81D6
:10017000C39731F08D819E81C09711F080E0CBC094
:100180001A821B821C821982C1C08981282F30E00B
:1001900081E090E002C0880F991F2A95E2F78A83D8
:1001A0008F819885FC0190818A8189238B839A8134
:1001B0008B81981709F0A7C08F819885FC018181F8
:1001C000813079F58D819E81FC0181818C838F81C5
:1001D0009885FC018181882F90E02981222F30E0D1
:1001E00002C0880F991F2A95E2F7982F90958C816D
:1001F00089238C838F819885FC018181882F90E0F1
:100200002981222F30E002C0880F991F2A95E2F73A
:10021000982F8C81892B8C838D819E812C81FC0170
:1002200021838F819885FC01818188230CF06BC02C
:100230008B81813019F08B818230B9F585E590E0B2
:10024000FC0180818C838F819885FC018181882FBE
:1002500090E0807899272981222F30E0220F331FE8
:1002600002C0880F991F2A95E2F7982F90958C81EC
:1002700089238C838F819885FC018181882F90E070
:10028000807899272981222F30E0220F331F02C066
:10029000880F991F2A95E2F7982F8C81892B8C83E0
:1002A00085E590E02C81FC0120838B81843059F519
:1002B00084E590E0FC0180818C838F819885FC012E
:1002C000818182788295880F807E8095982F8C819D
:1002D00089238C838F819885FC018181882F90E010
:1002E00082789927880F991F82959295907F9827F9
:1002F000807F9827982F8C81892B8C8384E590E0D0
:100300002C81FC01208389818F5F898389818830DA
:1003100008F43BCF81E028960FB6F894DEBF0FBEFD
:10032000CDBFDF91CF910895CF93DF9300D01F927F
:10033000CDB7DEB79A8389836B8389819A81C99708
:1003400061F089819A81C69741F089819A81C3972A
:1003500021F089819A81C09731F489819A812B811A
:10036000FC01228301C000000F900F900F90DF91DD
:10037000CF910895CF93DF9300D0CDB7DEB79A83A6
:10038000898389819A81FC018281882359F086E3DF
:1003900090E020EAFC0121838DE290E021E5FC0160
:1003A00020830AC086E390E020E4FC0121838DE2F3
:1003B00090E020E4FC01208381E00F900F90DF911A
:1003C000CF910895CF93DF9300D01F92CDB7DEB7C2
:1003D0009A8389836B8300008EE290E0FC01808128
:1003E0008823D4F78FE290E0FC0180810F900F907A
:1003F0000F90DF91CF910895CF93DF9300D000D07D
:1004000000D0CDB7DEB79E838D83198266C0000011
:100410008BE290E0FC0180818823D4F78BE290E0AE
:10042000FC0180818A838AE290E0FC0180818B83D9
:100430008CE290E0FC0180818C838A81882F90E09F
:100440008C719927892B19F08FEF9FEF55C08B8105
:10045000869581708B8389818F3071F08D819E812B
:10046000FC01218532858981882F90E0820F931FBE
:10047000FC018081833209F419828D819E81FC0107
:10048000218532858981882F90E0820F931F2B81EF
:10049000222F30E0322F2227322F2C81232BFC01F8
:1004A00020838D819E81FC01218532858981882F61
:1004B00090E0820F931FFC018081833259F48D817B
:1004C0009E81FC01218532858981882F90E0820FF1
:1004D000931F12C089818F5F89838D819E81FC016A
:1004E000218532858981882F90E0820F931FFC013E
:1004F0008081833209F08BCF26960FB6F894DEBF49
:100500000FBECDBFDF91CF9108951F920F92009043
:100510005F000F9211242F933F934F935F936F933C
:100520007F938F939F93AF93BF93EF93FF93CF935B
:10053000DF93CDB7DEB781E790E00E94FC010000B9
:10054000DF91CF91FF91EF91BF91AF919F918F91EB
:100550007F916F915F914F913F912F910F900092FA
:100560005F000F901F9018951F920F9200905F00F0
:100570000F921124CF93DF93CDB7DEB70000DF9148
:10058000CF910F9000925F000F901F9018951F92CF
:100590000F9200905F000F9211242F938F939F93DF
:1005A000EF93FF93CF93DF93CDB7DEB78AE290E06E
:1005B000FC0120812F7DFC0120830000DF91CF9181
:1005C000FF91EF919F918F912F910F9000925F007B
:1005D0000F901F901895CF93DF93CDB7DEB70E9491
:0C05E00049000E947300FDCFF894FFCF8B
:0C05EC003F065B4F666D7D077F6F0200CD
:00000001FF
