:100000000C942A000C9447000C9447000C94470071
:100010000C9447000C9447000C9447000C94470044
:100020000C9447000C9447000C9447000C94470034
:100030000C9447000C9475070C949B070C9488074C
:100040000C9447000C9447000C9447000C94470014
:100050000C94470011241FBECFE5D8E0DEBFCDBF12
:1000600010E0A0E6B0E0E0EAF2E102C005900D92F7
:10007000A237B107D9F720E0A2E7B0E001C01D9296
:10008000AA39B207E1F70E94BF070C944E090C94FD
:100090000000CF93DF93CDB7DEB761970FB6F8942A
:1000A000DEBF0FBECDBF89E390E0909373008093D5
:1000B000720086E390E0909379008093780083E368
:1000C00090E0909375008093740080E390E09093AB
:1000D00077008093760081E080937B0084E08093BA
:1000E0007A0081E080937C0082E790E00E94D80251
:1000F00080E895E2909397008093960083E0809348
:1001000091001092920083E08093940010929300EB
:1001100010928F001092900080E1809395008DE7FF
:1001200090E090939900809398008FE890E00E946F
:10013000D60521E1E0E6F0E0CE010196DC01019078
:100140000D922A95E1F7CE0101960E94C606CE01D6
:100150000196BC0182E790E00E94D00441E060E09B
:1001600082E790E00E947005000061960FB6F89457
:10017000DEBF0FBECDBFDF91CF910895CF93DF9348
:10018000CDB7DEB78FE890E00E94EC0690938E002A
:1001900080938D0080918D0090918E00FC01808174
:1001A000833279F480918D0090918E00FC01108251
:1001B0008091980090919900BC0182E790E00E94A4
:1001C000D0040000DF91CF910895CF93DF9300D04A
:1001D00000D0CDB7DEB79A8389836B834C83898146
:1001E0009A81C99771F089819A81C69751F0898166
:1001F0009A81C39731F089819A81C09711F080E08C
:100200001DC08C81813061F489819A81FC019281C9
:100210008B81292F282B89819A81FC0122830DC093
:1002200089819A81FC018281982F8B818095892315
:10023000282F89819A81FC01228381E00F900F9001
:100240000F900F90DF91CF910895CF93DF9300D05F
:100250001F92CDB7DEB79A8389836B8389819A8198
:10026000C99761F089819A81C69741F089819A8105
:10027000C39721F089819A81C09731F489819A814D
:100280002B81FC01228301C000000F900F900F9082
:10029000DF91CF910895CF93DF9300D000D0CDB7F9
:1002A000DEB79A8389836B834C8389819A81C9974E
:1002B00069F089819A81C69749F089819A81C397AB
:1002C00029F089819A81C09709F0A0C08B81882F7D
:1002D00090E08830910509F44AC0893091054CF4CA
:1002E0008230910539F18430910591F10197A9F09F
:1002F0008EC08032910509F459C08132910524F4F1
:10030000409709F444C083C08034910509F45EC06D
:100310008038910509F46BC07AC08C81282F217038
:1003200089819A812170FC0131813E7F232BFC0160
:1003300021836DC08C81282F217089819A81217041
:10034000220FFC0131813D7F232BFC0121835FC003
:100350008C81282F217089819A812170220F220F90
:10036000FC0131813B7F232BFC01218350C08C8118
:10037000282F217089819A812170220F220F220F4C
:10038000FC013181377F232BFC01218340C08C810C
:10039000282F217089819A8121702295207FFC016C
:1003A00031813F7E232BFC01218331C08C81282F9A
:1003B000217089819A8121702295220F207EFC0173
:1003C00031813F7D232BFC01218321C08C81282F8B
:1003D000217089819A8121702295220F220F207C21
:1003E000FC0131813F7B232BFC01218310C08C81D8
:1003F000282F217089819A81279522272795FC0132
:1004000031813F77232BFC01218301C000000F9035
:100410000F900F900F90DF91CF910895CF93DF93BE
:1004200000D01F92CDB7DEB79A8389836B83898111
:100430009A81C99761F089819A81C69741F0898133
:100440009A81C39721F089819A81C09731F489817B
:100450009A812B81FC01218301C000000F900F9035
:100460000F90DF91CF910895CF93DF93CDB7DEB793
:1004700060970FB6F894DEBF0FBECDBF988B8F8705
:100480008F859889FC0121858F859889FC0186815B
:10049000978140E0622F0E94E5000000000080E0AC
:1004A00090E0A0E8BFE389839A83AB83BC8320E01C
:1004B00030E04AE755E469817A818B819C810E9412
:1004C0004E08DC01CB018D839E83AF83B88720E08B
:1004D00030E040E85FE36D817E818F8198850E94E6
:1004E000C80788232CF481E090E09A8789873FC071
:1004F00020E03FEF4FE757E46D817E818F81988543
:100500000E94490818164CF520E030E040E251E422
:1005100069817A818B819C810E944E08DC01CB012C
:10052000BC01CD010E94CD07DC01CB019A878987F0
:100530000FC080E991E09C878B878B859C85019714
:10054000F1F79C878B8789859A8501979A87898798
:1005500089859A85892B69F714C06D817E818F8189
:1005600098850E94CD07DC01CB019A878987898510
:100570009A859E878D878D859E850197F1F79E8749
:100580008D878F859889FC0121858F859889FC014D
:100590008681978141E0622F0E94E500000060960D
:1005A0000FB6F894DEBF0FBECDBFDF91CF91089597
:1005B000CF93DF93CDB7DEB76E970FB6F894DEBF5B
:1005C0000FBECDBF9E8F8D8F8D8D9E8DFC012085A2
:1005D0008D8D9E8DFC018481958141E0622F0E946A
:1005E0004B018D8D9E8DFC0122858D8D9E8DFC0194
:1005F0008281938141E0622F0E944B018D8D9E8DFF
:10060000FC0121858D8D9E8DFC018681978141E0C5
:10061000622F0E944B018D8D9E8DFC0122858D8D58
:100620009E8DFC018281938140E0622F0E94E50053
:100630008D8D9E8DFC0120858D8D9E8DFC0184818C
:10064000958140E0622F0E94E5008D8D9E8DFC011A
:1006500021858D8D9E8DFC018681978140E0622FE2
:100660000E94E5008D8D9E8DFC01808191816FEF50
:100670000E940E0280E090E0A0EBB1E489839A83AF
:10068000AB83BC8320E030E04AE755E469817A819E
:100690008B819C810E944E08DC01CB018B8B9C8B53
:1006A000AD8BBE8B20E030E040E85FE36B897C8956
:1006B0008D899E890E94C80788232CF481E090E0F0
:1006C000988F8F8B3FC020E03FEF4FE757E46B8957
:1006D0007C898D899E890E94490818164CF520E076
:1006E00030E040E251E469817A818B819C810E94F3
:1006F0004E08DC01CB01BC01CD010E94CD07DC011D
:10070000CB01988F8F8B0FC080E991E09A8F898FF2
:10071000898D9A8D0197F1F79A8F898F8F89988D9E
:100720000197988F8F8B8F89988D892B69F714C0CB
:100730006B897C898D899E890E94CD07DC01CB0164
:10074000988F8F8B8F89988D9C8F8B8F8B8D9C8DA5
:100750000197F1F79C8F8B8F8D8D9E8D61E00E94AC
:100760009C058D8D9E8D6CE30E949C058D8D9E8DCC
:1007700066E00E949C058D8D9E8D60E80E949C0520
:100780008D8D9E8D6FE00E949C0580E090E0A0E240
:10079000B2E48D839E83AF83B88720E030E04AE7E0
:1007A00055E46D817E818F8198850E944E08DC0121
:1007B000CB0189879A87AB87BC8720E030E040E88F
:1007C0005FE369857A858B859C850E94C8078823AD
:1007D0002CF481E090E09E878D873FC020E03FEFC2
:1007E0004FE757E469857A858B859C850E94490887
:1007F00018164CF520E030E040E251E46D817E8136
:100800008F8198850E944E08DC01CB01BC01CD018F
:100810000E94CD07DC01CB019E878D870FC080E948
:1008200091E0988B8F878F8598890197F1F7988B46
:100830008F878D859E8501979E878D878D859E8567
:10084000892B69F714C069857A858B859C850E9400
:10085000CD07DC01CB019E878D878D859E859A8B88
:10086000898B89899A890197F1F79A8B898B000086
:100870006E960FB6F894DEBF0FBECDBFDF91CF915D
:100880000895CF93DF9300D0CDB7DEB79A838983E5
:1008900089819A81FC018081918160E00E940E0231
:1008A00089819A81FC01208589819A81FC0184815A
:1008B000958141E0622F0E94E50089819A81FC01C7
:1008C000228589819A81FC018281938140E0622F97
:1008D0000E94E50089819A810E94340289819A816F
:1008E000FC01808191816FEF0E940E0289819A81C3
:1008F000FC01208589819A81FC018481958140E0F9
:10090000622F0E94E50000000F900F90DF91CF91C1
:100910000895CF93DF9300D01F92CDB7DEB79A83AF
:1009200089836B8389819A810E94410489819A819C
:10093000FC01228589819A81FC018281938141E0B9
:10094000622F0E94E50089819A81FC01808191815A
:100950006B810E94250189819A81FC012285898110
:100960009A81FC018281938141E0622F0E94E5001F
:1009700089819A81FC01208589819A81FC01848189
:10098000958140E0622F0E94E50089819A810E9452
:10099000340200000F900F900F90DF91CF910895D7
:1009A000CF93DF93CDB7DEB762970FB6F894DEBF73
:1009B0000FBECDBF988B8F877A8B698B80C089895A
:1009C0009A89FC0120818F859889622F0E94890471
:1009D00089899A8901969A8B898B80E090E0A6E9B3
:1009E000B3E489839A83AB83BC8320E030E04AE799
:1009F00055E469817A818B819C810E944E08DC01DB
:100A0000CB018D839E83AF83B88720E030E040E840
:100A10005FE36D817E818F8198850E94C80788235E
:100A20002CF481E090E09A8789873FC020E03FEF77
:100A30004FE757E46D817E818F8198850E94490838
:100A400018164CF520E030E040E251E469817A81EB
:100A50008B819C810E944E08DC01CB01BC01CD0141
:100A60000E94CD07DC01CB019A8789870FC080E9FE
:100A700091E09C878B878B859C850197F1F79C87FC
:100A80008B8789859A8501979A87898789859A8531
:100A9000892B69F714C06D817E818F8198850E94B2
:100AA000CD07DC01CB019A87898789859A859E8746
:100AB0008D878D859E850197F1F79E878D87898922
:100AC0009A89FC018081882309F079CF0000629621
:100AD0000FB6F894DEBF0FBECDBFDF91CF91089562
:100AE000CF93DF9300D000D0CDB7DEB79A83898350
:100AF0006B834C838C81882F90E0009719F00197CD
:100B000051F012C08B8120E8280F89819A81622FD1
:100B10000E949C0509C08B8120EC280F89819A8155
:100B2000622F0E949C05000000000F900F900F9014
:100B30000F90DF91CF910895CF93DF9300D01F9254
:100B4000CDB7DEB79A8389836B8389819A810E94AE
:100B5000410489819A81FC01808191816B810E948D
:100B6000250189819A81FC01228589819A81FC0174
:100B70008281938140E0622F0E94E50089819A8101
:100B8000FC01208589819A81FC018481958140E066
:100B9000622F0E94E50089819A810E943402000040
:100BA0000F900F900F90DF91CF910895CF93DF9327
:100BB000CDB7DEB729970FB6F894DEBF0FBECDBF15
:100BC00099878887888599858115904108F0A3C009
:100BD00088859985FC01878190859C0140E050E0E3
:100BE00088859985FC018681882F90E0A0E0B0E09F
:100BF000BC01CD010E94E308DC01CB0189839A830B
:100C0000AB83BC8380E092E1AAE7B0E029813A811E
:100C10004B815C81BC01CD010E94F308DA01C9015E
:100C200001979E838D8380E490E02D813E81232F68
:100C30003327FC01208389E290E02D81FC01208391
:100C40008BE290E028853985F90126812870220FF2
:100C5000FC0120838AE290E028853985F90125810D
:100C6000222F30E0220F331F220F331F220F331F9A
:100C7000422F28853985F9012281222F30E0247006
:100C80003327220F331F220F331F242BFC01208315
:100C900088859985FC018081882F90E000249695B5
:100CA00087950794969587950794982F802D282FE0
:100CB000206888859985FC018481882F90E0829541
:100CC0009295907F9827807F9827282B88859985F3
:100CD000FC018181882F90E0880F991F880F991F50
:100CE000880F991F282B88859985FC018281882F80
:100CF00090E083709927880F991F282B8885998504
:100D0000FC018381822B8F8380E490E02F81FC01A2
:100D1000208381E001C080E029960FB6F894DEBF01
:100D20000FBECDBFDF91CF910895CF93DF9300D059
:100D3000CDB7DEB79A83898300008BE290E0FC0197
:100D40008081882F90E080729927892BB1F38AE205
:100D500090E0FC0120812E7FFC01208389819A8113
:100D600088279170892B39F08AE290E0FC0120817C
:100D70002160FC0120838CE290E02981FC0120832A
:100D800000000F900F90DF91CF910895CF93DF93E4
:100D900000D000D0CDB7DEB79C838B831A82198236
:100DA0000DC08B819C81FC018081882F90E00E9486
:100DB00095068B819C8101969C838B838B819C8182
:100DC000FC018081882369F700000F900F900F903D
:100DD0000F90DF91CF910895CF93DF9300D000D093
:100DE00000D0CDB7DEB79E838D83198266C0000028
:100DF0008BE290E0FC0180818823D4F78BE290E0C5
:100E0000FC0180818A838AE290E0FC0180818B83EF
:100E10008CE290E0FC0180818C838A81882F90E0B5
:100E20008C719927892B19F08FEF9FEF55C08B811B
:100E3000869581708B8389818F3071F08D819E8141
:100E4000FC01218532858981882F90E0820F931FD4
:100E5000FC018081833209F419828D819E81FC011D
:100E6000218532858981882F90E0820F931F2B8105
:100E7000222F30E0322F2227322F2C81232BFC010E
:100E800020838D819E81FC01218532858981882F77
:100E900090E0820F931FFC018081833259F48D8191
:100EA0009E81FC01218532858981882F90E0820F07
:100EB000931F12C089818F5F89838D819E81FC0180
:100EC000218532858981882F90E0820F931FFC0154
:100ED0008081833209F08BCF26960FB6F894DEBF5F
:100EE0000FBECDBFDF91CF9108951F920F9200905A
:100EF0005F000F921124CF93DF93CDB7DEB70000D0
:100F0000DF91CF910F9000925F000F901F90189586
:100F10001F920F9200905F000F921124CF93DF93E6
:100F2000CDB7DEB70000DF91CF910F9000925F0048
:100F30000F901F9018951F920F9200905F000F92D4
:100F400011242F938F939F93EF93FF93CF93DF936E
:100F5000CDB7DEB78AE290E0FC0120812F7DFC0155
:100F600020830000DF91CF91FF91EF919F918F91AE
:100F70002F910F9000925F000F901F901895CF93C4
:100F8000DF93CDB7DEB70E9449000E94BE00FDCFBF
:100F90000E94FC0708F481E008950E94280888F068
:100FA0009F5798F0B92F9927B751B0F0E1F0660F2D
:100FB000771F881F991F1AF0BA95C9F714C0B1306E
:100FC00091F00E944208B1E008950C944208672F06
:100FD000782F8827B85F39F0B93FCCF3869577959D
:100FE0006795B395D9F73EF4909580957095619586
:100FF0007F4F8F4F9F4F0895990F0008550FAA0BF1
:10100000E0E8FEEF16161706E807F907C0F012161B
:101010001306E407F50798F0621B730B840B950B1E
:1010200039F40A2661F0232B242B252B21F4089573
:101030000A2609F4A140A6958FEF811D811D089510
:1010400057FD9058440F551F59F05F3F71F0479579
:10105000880F97FB991F61F09F3F79F0879508955E
:10106000121613061406551FF2CF4695F1DF08C07D
:10107000161617061806991FF1CF8695710561059A
:1010800008940895E894BB2766277727CB0197F942
:1010900008950E94FC0708F48FEF08950E946108EC
:1010A0000C94D2080E94C40838F00E94CB0820F0AB
:1010B000952311F00C94BB080C94C10811240C94D6
:1010C00043080E94200870F3959FC1F3950F50E0EC
:1010D000551F629FF001729FBB27F00DB11D639FEA
:1010E000AA27F00DB11DAA1F649F6627B00DA11D90
:1010F000661F829F2227B00DA11D621F739FB00D36
:10110000A11D621F839FA00D611D221F749F3327A5
:10111000A00D611D231F849F600D211D822F762F3E
:101120006A2F11249F5750409AF0F1F088234AF01B
:10113000EE0FFF1FBB1F661F771F881F9150504087
:10114000A9F79E3F510580F00C94BB080C9443080E
:101150005F3FE4F3983ED4F3869577956795B7950E
:10116000F795E7959F5FC1F7FE2B880F911D969528
:10117000879597F9089597F99F6780E870E060E098
:1011800008959FEF80EC089500240A941616170620
:1011900018060906089500240A9412161306140668
:1011A00005060895092E0394000C11F4882352F0CB
:1011B000BB0F40F4BF2B11F460FF04C06F5F7F4F83
:1011C0008F4F9F4F0895DB018F939F930E941209C9
:1011D000BF91AF91A29F800D911DA39F900DB29FD3
:1011E000900D11240895052E97FB1EF400940E9483
:1011F0000A0957FD07D00E941D0907FC03D04EF4D1
:101200000C940A0950954095309521953F4F4F4FCA
:101210005F4F089590958095709561957F4F8F4FA2
:101220009F4F08950E943F09A59F900DB49F900D78
:10123000A49F800D911D11240895A1E21A2EAA1BCE
:10124000BB1BFD010DC0AA1FBB1FEE1FFF1FA21776
:10125000B307E407F50720F0A21BB30BE40BF50B73
:10126000661F771F881F991F1A9469F760957095FC
:10127000809590959B01AC01BD01CF010895A29F7F
:10128000B001B39FC001A39F700D811D1124911D5A
:10129000B29F700D811D1124911D0895F894FFCF08
:1012A000596F752063616E20646F206974200A0D88
:0212B00000003C
:00000001FF
