S016000041746D65676133325F74657374312E737265630A
S11300000C942A000C943C000C943C000C9470005A
S11300100C943C000C943C000C943C000C943C006C
S11300200C943C000C943C000C943C000C943C005C
S11300300C943C000C943C000C943C000C943C004C
S11300400C943C000C943C000C943C000C943C003C
S11300500C943C0011241FBECFE5D8E0DEBFCDBF19
S113006020E0A0E6B0E001C01D92A136B207E1F79E
S11300700E9430010C943E010C940000CF93DF9356
S113008000D01F92CDB7DEB719821A821B828FEF80
S1130090898381E08A83BE016F5F7F4F89E390E0AB
S11300A00E9497000F900F900F90DF91CF910895C9
S11300B080916000883098F48091600061E070E085
S11300C002C0660F771F8A95E2F741E089E390E06A
S11300D00E940201809160008F5F80936000089508
S11300E01F920F920FB60F9211242F933F934F93A9
S11300F05F936F937F938F939F93AF93BF93EF938C
S1130100FF9361E089E390E00E941F01FF91EF916A
S1130110BF91AF919F918F917F916F915F914F911B
S11301203F912F910F900FBE0F901F901895DC01F7
S1130130FB018933910509F459C08633910509F40B
S113014057C08333910509F455C0C09709F058C0CE
S113015090E051C0692F70E021E030E0092E02C028
S1130160220F331F0A94E2F73081322332133CC04A
S11301704181413089F411968C91119750E0092EF8
S113018002C0440F551F0A94E2F7242F20958223BE
S1130190482B11964C931197418144232CF58FEFF2
S11301A0830F823078F485B7407850E0660F771F6C
S11301B002C0440F551F6A95E2F7242F209582232D
S11301C0482B45BF343081F434B781818278282F9D
S11301D02295220F207E2095422F432350E2859FB3
S11301E090011124242B24BF9F5F05C090E003C01D
S11301F090E001C090E0983008F4ACCF81E008951D
S113020080E008958933910549F08633910531F0F2
S11302108333910519F08033910579F4413031F439
S1130220FC012281622B628381E008956095FC01C8
S113023022816223628381E0089580E008958933F6
S1130240910549F08633910531F08333910519F016
S11302508033910521F4FC01228162276283089591
S11302600E943E000E9458002FEF83ED90E321503E
S113027080409040E1F700C00000F4CFF894FFCF35
S9030000FC
